{
	"contracts/smartbank.sol": {
		"SmartBank": {
			"abi": [
				{
					"inputs": [],
					"stateMutability": "nonpayable",
					"type": "constructor"
				},
				{
					"anonymous": false,
					"inputs": [
						{
							"indexed": true,
							"internalType": "address",
							"name": "user",
							"type": "address"
						},
						{
							"indexed": false,
							"internalType": "uint256",
							"name": "amount",
							"type": "uint256"
						}
					],
					"name": "Deposit",
					"type": "event"
				},
				{
					"anonymous": false,
					"inputs": [
						{
							"indexed": false,
							"internalType": "bool",
							"name": "status",
							"type": "bool"
						}
					],
					"name": "Paused",
					"type": "event"
				},
				{
					"anonymous": false,
					"inputs": [
						{
							"indexed": true,
							"internalType": "address",
							"name": "from",
							"type": "address"
						},
						{
							"indexed": true,
							"internalType": "address",
							"name": "to",
							"type": "address"
						},
						{
							"indexed": false,
							"internalType": "uint256",
							"name": "amount",
							"type": "uint256"
						}
					],
					"name": "Transfer",
					"type": "event"
				},
				{
					"anonymous": false,
					"inputs": [
						{
							"indexed": true,
							"internalType": "address",
							"name": "user",
							"type": "address"
						},
						{
							"indexed": false,
							"internalType": "uint256",
							"name": "amount",
							"type": "uint256"
						}
					],
					"name": "Withdraw",
					"type": "event"
				},
				{
					"inputs": [
						{
							"internalType": "address",
							"name": "",
							"type": "address"
						}
					],
					"name": "balances",
					"outputs": [
						{
							"internalType": "uint256",
							"name": "",
							"type": "uint256"
						}
					],
					"stateMutability": "view",
					"type": "function"
				},
				{
					"inputs": [],
					"name": "deposit",
					"outputs": [],
					"stateMutability": "payable",
					"type": "function"
				},
				{
					"inputs": [],
					"name": "getBalance",
					"outputs": [
						{
							"internalType": "uint256",
							"name": "",
							"type": "uint256"
						}
					],
					"stateMutability": "view",
					"type": "function"
				},
				{
					"inputs": [],
					"name": "owner",
					"outputs": [
						{
							"internalType": "address",
							"name": "",
							"type": "address"
						}
					],
					"stateMutability": "view",
					"type": "function"
				},
				{
					"inputs": [
						{
							"internalType": "bool",
							"name": "state",
							"type": "bool"
						}
					],
					"name": "pause",
					"outputs": [],
					"stateMutability": "nonpayable",
					"type": "function"
				},
				{
					"inputs": [],
					"name": "paused",
					"outputs": [
						{
							"internalType": "bool",
							"name": "",
							"type": "bool"
						}
					],
					"stateMutability": "view",
					"type": "function"
				},
				{
					"inputs": [
						{
							"internalType": "address",
							"name": "to",
							"type": "address"
						},
						{
							"internalType": "uint256",
							"name": "amount",
							"type": "uint256"
						}
					],
					"name": "transfer",
					"outputs": [],
					"stateMutability": "nonpayable",
					"type": "function"
				},
				{
					"inputs": [
						{
							"internalType": "uint256",
							"name": "amount",
							"type": "uint256"
						}
					],
					"name": "withdraw",
					"outputs": [],
					"stateMutability": "nonpayable",
					"type": "function"
				},
				{
					"stateMutability": "payable",
					"type": "receive"
				}
			],
			"devdoc": {
				"kind": "dev",
				"methods": {},
				"version": 1
			},
			"evm": {
				"assembly": "    /* \"contracts/smartbank.sol\":61:2220  contract SmartBank {... */\n  mstore(0x40, 0x80)\n    /* \"contracts/smartbank.sol\":460:511  constructor() {... */\n  callvalue\n  dup1\n  iszero\n  tag_1\n  jumpi\n  revert(0x00, 0x00)\ntag_1:\n  pop\n    /* \"contracts/smartbank.sol\":493:503  msg.sender */\n  caller\n    /* \"contracts/smartbank.sol\":485:490  owner */\n  0x00\n  0x00\n    /* \"contracts/smartbank.sol\":485:503  owner = msg.sender */\n  0x0100\n  exp\n  dup2\n  sload\n  dup2\n  0xffffffffffffffffffffffffffffffffffffffff\n  mul\n  not\n  and\n  swap1\n  dup4\n  0xffffffffffffffffffffffffffffffffffffffff\n  and\n  mul\n  or\n  swap1\n  sstore\n  pop\n    /* \"contracts/smartbank.sol\":61:2220  contract SmartBank {... */\n  dataSize(sub_0)\n  dup1\n  dataOffset(sub_0)\n  0x00\n  codecopy\n  0x00\n  return\nstop\n\nsub_0: assembly {\n        /* \"contracts/smartbank.sol\":61:2220  contract SmartBank {... */\n      mstore(0x40, 0x80)\n      jumpi(tag_1, lt(calldatasize, 0x04))\n      shr(0xe0, calldataload(0x00))\n      dup1\n      0x5c975abb\n      gt\n      tag_11\n      jumpi\n      dup1\n      0x5c975abb\n      eq\n      tag_7\n      jumpi\n      dup1\n      0x8da5cb5b\n      eq\n      tag_8\n      jumpi\n      dup1\n      0xa9059cbb\n      eq\n      tag_9\n      jumpi\n      dup1\n      0xd0e30db0\n      eq\n      tag_10\n      jumpi\n      jump(tag_2)\n    tag_11:\n      dup1\n      0x02329a29\n      eq\n      tag_3\n      jumpi\n      dup1\n      0x12065fe0\n      eq\n      tag_4\n      jumpi\n      dup1\n      0x27e235e3\n      eq\n      tag_5\n      jumpi\n      dup1\n      0x2e1a7d4d\n      eq\n      tag_6\n      jumpi\n      jump(tag_2)\n    tag_1:\n      jumpi(tag_2, calldatasize)\n        /* \"contracts/smartbank.sol\":2154:2163  msg.value */\n      callvalue\n        /* \"contracts/smartbank.sol\":2130:2138  balances */\n      0x01\n        /* \"contracts/smartbank.sol\":2130:2150  balances[msg.sender] */\n      0x00\n        /* \"contracts/smartbank.sol\":2139:2149  msg.sender */\n      caller\n        /* \"contracts/smartbank.sol\":2130:2150  balances[msg.sender] */\n      0xffffffffffffffffffffffffffffffffffffffff\n      and\n      0xffffffffffffffffffffffffffffffffffffffff\n      and\n      dup2\n      mstore\n      0x20\n      add\n      swap1\n      dup2\n      mstore\n      0x20\n      add\n      0x00\n      keccak256\n      0x00\n        /* \"contracts/smartbank.sol\":2130:2163  balances[msg.sender] += msg.value */\n      dup3\n      dup3\n      sload\n      tag_14\n      swap2\n      swap1\n      tag_15\n      jump\t// in\n    tag_14:\n      swap3\n      pop\n      pop\n      dup2\n      swap1\n      sstore\n      pop\n        /* \"contracts/smartbank.sol\":2187:2197  msg.sender */\n      caller\n        /* \"contracts/smartbank.sol\":2179:2209  Deposit(msg.sender, msg.value) */\n      0xffffffffffffffffffffffffffffffffffffffff\n      and\n      0xe1fffcc4923d04b559f4d29a8bfc6cda04eb5b0d3c460751c2402c5c5cc9109c\n        /* \"contracts/smartbank.sol\":2199:2208  msg.value */\n      callvalue\n        /* \"contracts/smartbank.sol\":2179:2209  Deposit(msg.sender, msg.value) */\n      mload(0x40)\n      tag_16\n      swap2\n      swap1\n      tag_17\n      jump\t// in\n    tag_16:\n      mload(0x40)\n      dup1\n      swap2\n      sub\n      swap1\n      log2\n        /* \"contracts/smartbank.sol\":61:2220  contract SmartBank {... */\n      stop\n    tag_2:\n      revert(0x00, 0x00)\n        /* \"contracts/smartbank.sol\":1935:2041  function pause(bool state) public onlyOwner {... */\n    tag_3:\n      callvalue\n      dup1\n      iszero\n      tag_18\n      jumpi\n      revert(0x00, 0x00)\n    tag_18:\n      pop\n      tag_19\n      0x04\n      dup1\n      calldatasize\n      sub\n      dup2\n      add\n      swap1\n      tag_20\n      swap2\n      swap1\n      tag_21\n      jump\t// in\n    tag_20:\n      tag_22\n      jump\t// in\n    tag_19:\n      stop\n        /* \"contracts/smartbank.sol\":1788:1886  function getBalance() public view returns (uint256) {... */\n    tag_4:\n      callvalue\n      dup1\n      iszero\n      tag_23\n      jumpi\n      revert(0x00, 0x00)\n    tag_23:\n      pop\n      tag_24\n      tag_25\n      jump\t// in\n    tag_24:\n      mload(0x40)\n      tag_26\n      swap2\n      swap1\n      tag_17\n      jump\t// in\n    tag_26:\n      mload(0x40)\n      dup1\n      swap2\n      sub\n      swap1\n      return\n        /* \"contracts/smartbank.sol\":163:206  mapping(address => uint256) public balances */\n    tag_5:\n      callvalue\n      dup1\n      iszero\n      tag_27\n      jumpi\n      revert(0x00, 0x00)\n    tag_27:\n      pop\n      tag_28\n      0x04\n      dup1\n      calldatasize\n      sub\n      dup2\n      add\n      swap1\n      tag_29\n      swap2\n      swap1\n      tag_30\n      jump\t// in\n    tag_29:\n      tag_31\n      jump\t// in\n    tag_28:\n      mload(0x40)\n      tag_32\n      swap2\n      swap1\n      tag_17\n      jump\t// in\n    tag_32:\n      mload(0x40)\n      dup1\n      swap2\n      sub\n      swap1\n      return\n        /* \"contracts/smartbank.sol\":1095:1364  function withdraw(uint256 amount) public whenNotPaused {... */\n    tag_6:\n      callvalue\n      dup1\n      iszero\n      tag_33\n      jumpi\n      revert(0x00, 0x00)\n    tag_33:\n      pop\n      tag_34\n      0x04\n      dup1\n      calldatasize\n      sub\n      dup2\n      add\n      swap1\n      tag_35\n      swap2\n      swap1\n      tag_36\n      jump\t// in\n    tag_35:\n      tag_37\n      jump\t// in\n    tag_34:\n      stop\n        /* \"contracts/smartbank.sol\":114:132  bool public paused */\n    tag_7:\n      callvalue\n      dup1\n      iszero\n      tag_38\n      jumpi\n      revert(0x00, 0x00)\n    tag_38:\n      pop\n      tag_39\n      tag_40\n      jump\t// in\n    tag_39:\n      mload(0x40)\n      tag_41\n      swap2\n      swap1\n      tag_42\n      jump\t// in\n    tag_41:\n      mload(0x40)\n      dup1\n      swap2\n      sub\n      swap1\n      return\n        /* \"contracts/smartbank.sol\":87:107  address public owner */\n    tag_8:\n      callvalue\n      dup1\n      iszero\n      tag_43\n      jumpi\n      revert(0x00, 0x00)\n    tag_43:\n      pop\n      tag_44\n      tag_45\n      jump\t// in\n    tag_44:\n      mload(0x40)\n      tag_46\n      swap2\n      swap1\n      tag_47\n      jump\t// in\n    tag_46:\n      mload(0x40)\n      dup1\n      swap2\n      sub\n      swap1\n      return\n        /* \"contracts/smartbank.sol\":1431:1759  function transfer(address to, uint256 amount) public whenNotPaused {... */\n    tag_9:\n      callvalue\n      dup1\n      iszero\n      tag_48\n      jumpi\n      revert(0x00, 0x00)\n    tag_48:\n      pop\n      tag_49\n      0x04\n      dup1\n      calldatasize\n      sub\n      dup2\n      add\n      swap1\n      tag_50\n      swap2\n      swap1\n      tag_51\n      jump\t// in\n    tag_50:\n      tag_52\n      jump\t// in\n    tag_49:\n      stop\n        /* \"contracts/smartbank.sol\":843:1041  function deposit() public payable whenNotPaused {... */\n    tag_10:\n      tag_53\n      tag_54\n      jump\t// in\n    tag_53:\n      stop\n        /* \"contracts/smartbank.sol\":1935:2041  function pause(bool state) public onlyOwner {... */\n    tag_22:\n        /* \"contracts/smartbank.sol\":609:614  owner */\n      0x00\n      0x00\n      swap1\n      sload\n      swap1\n      0x0100\n      exp\n      swap1\n      div\n      0xffffffffffffffffffffffffffffffffffffffff\n      and\n        /* \"contracts/smartbank.sol\":595:614  msg.sender == owner */\n      0xffffffffffffffffffffffffffffffffffffffff\n      and\n        /* \"contracts/smartbank.sol\":595:605  msg.sender */\n      caller\n        /* \"contracts/smartbank.sol\":595:614  msg.sender == owner */\n      0xffffffffffffffffffffffffffffffffffffffff\n      and\n      eq\n        /* \"contracts/smartbank.sol\":587:628  require(msg.sender == owner, \"Not owner\") */\n      tag_56\n      jumpi\n      mload(0x40)\n      0x08c379a000000000000000000000000000000000000000000000000000000000\n      dup2\n      mstore\n      0x04\n      add\n      tag_57\n      swap1\n      tag_58\n      jump\t// in\n    tag_57:\n      mload(0x40)\n      dup1\n      swap2\n      sub\n      swap1\n      revert\n    tag_56:\n        /* \"contracts/smartbank.sol\":1999:2004  state */\n      dup1\n        /* \"contracts/smartbank.sol\":1990:1996  paused */\n      0x00\n      0x14\n        /* \"contracts/smartbank.sol\":1990:2004  paused = state */\n      0x0100\n      exp\n      dup2\n      sload\n      dup2\n      0xff\n      mul\n      not\n      and\n      swap1\n      dup4\n      iszero\n      iszero\n      mul\n      or\n      swap1\n      sstore\n      pop\n        /* \"contracts/smartbank.sol\":2020:2033  Paused(state) */\n      0x0e2fb031ee032dc02d8011dc50b816eb450cf856abd8261680dac74f72165bd2\n        /* \"contracts/smartbank.sol\":2027:2032  state */\n      dup2\n        /* \"contracts/smartbank.sol\":2020:2033  Paused(state) */\n      mload(0x40)\n      tag_60\n      swap2\n      swap1\n      tag_42\n      jump\t// in\n    tag_60:\n      mload(0x40)\n      dup1\n      swap2\n      sub\n      swap1\n      log1\n        /* \"contracts/smartbank.sol\":1935:2041  function pause(bool state) public onlyOwner {... */\n      pop\n      jump\t// out\n        /* \"contracts/smartbank.sol\":1788:1886  function getBalance() public view returns (uint256) {... */\n    tag_25:\n        /* \"contracts/smartbank.sol\":1831:1838  uint256 */\n      0x00\n        /* \"contracts/smartbank.sol\":1858:1866  balances */\n      0x01\n        /* \"contracts/smartbank.sol\":1858:1878  balances[msg.sender] */\n      0x00\n        /* \"contracts/smartbank.sol\":1867:1877  msg.sender */\n      caller\n        /* \"contracts/smartbank.sol\":1858:1878  balances[msg.sender] */\n      0xffffffffffffffffffffffffffffffffffffffff\n      and\n      0xffffffffffffffffffffffffffffffffffffffff\n      and\n      dup2\n      mstore\n      0x20\n      add\n      swap1\n      dup2\n      mstore\n      0x20\n      add\n      0x00\n      keccak256\n      sload\n        /* \"contracts/smartbank.sol\":1851:1878  return balances[msg.sender] */\n      swap1\n      pop\n        /* \"contracts/smartbank.sol\":1788:1886  function getBalance() public view returns (uint256) {... */\n      swap1\n      jump\t// out\n        /* \"contracts/smartbank.sol\":163:206  mapping(address => uint256) public balances */\n    tag_31:\n      mstore(0x20, 0x01)\n      dup1\n      0x00\n      mstore\n      keccak256(0x00, 0x40)\n      0x00\n      swap2\n      pop\n      swap1\n      pop\n      sload\n      dup2\n      jump\t// out\n        /* \"contracts/smartbank.sol\":1095:1364  function withdraw(uint256 amount) public whenNotPaused {... */\n    tag_37:\n        /* \"contracts/smartbank.sol\":701:707  paused */\n      0x00\n      0x14\n      swap1\n      sload\n      swap1\n      0x0100\n      exp\n      swap1\n      div\n      0xff\n      and\n        /* \"contracts/smartbank.sol\":700:707  !paused */\n      iszero\n        /* \"contracts/smartbank.sol\":692:727  require(!paused, \"Contract paused\") */\n      tag_63\n      jumpi\n      mload(0x40)\n      0x08c379a000000000000000000000000000000000000000000000000000000000\n      dup2\n      mstore\n      0x04\n      add\n      tag_64\n      swap1\n      tag_65\n      jump\t// in\n    tag_64:\n      mload(0x40)\n      dup1\n      swap2\n      sub\n      swap1\n      revert\n    tag_63:\n        /* \"contracts/smartbank.sol\":1193:1199  amount */\n      dup1\n        /* \"contracts/smartbank.sol\":1169:1177  balances */\n      0x01\n        /* \"contracts/smartbank.sol\":1169:1189  balances[msg.sender] */\n      0x00\n        /* \"contracts/smartbank.sol\":1178:1188  msg.sender */\n      caller\n        /* \"contracts/smartbank.sol\":1169:1189  balances[msg.sender] */\n      0xffffffffffffffffffffffffffffffffffffffff\n      and\n      0xffffffffffffffffffffffffffffffffffffffff\n      and\n      dup2\n      mstore\n      0x20\n      add\n      swap1\n      dup2\n      mstore\n      0x20\n      add\n      0x00\n      keccak256\n      sload\n        /* \"contracts/smartbank.sol\":1169:1199  balances[msg.sender] >= amount */\n      lt\n      iszero\n        /* \"contracts/smartbank.sol\":1161:1224  require(balances[msg.sender] >= amount, \"Insufficient balance\") */\n      tag_67\n      jumpi\n      mload(0x40)\n      0x08c379a000000000000000000000000000000000000000000000000000000000\n      dup2\n      mstore\n      0x04\n      add\n      tag_68\n      swap1\n      tag_69\n      jump\t// in\n    tag_68:\n      mload(0x40)\n      dup1\n      swap2\n      sub\n      swap1\n      revert\n    tag_67:\n        /* \"contracts/smartbank.sol\":1259:1265  amount */\n      dup1\n        /* \"contracts/smartbank.sol\":1235:1243  balances */\n      0x01\n        /* \"contracts/smartbank.sol\":1235:1255  balances[msg.sender] */\n      0x00\n        /* \"contracts/smartbank.sol\":1244:1254  msg.sender */\n      caller\n        /* \"contracts/smartbank.sol\":1235:1255  balances[msg.sender] */\n      0xffffffffffffffffffffffffffffffffffffffff\n      and\n      0xffffffffffffffffffffffffffffffffffffffff\n      and\n      dup2\n      mstore\n      0x20\n      add\n      swap1\n      dup2\n      mstore\n      0x20\n      add\n      0x00\n      keccak256\n      0x00\n        /* \"contracts/smartbank.sol\":1235:1265  balances[msg.sender] -= amount */\n      dup3\n      dup3\n      sload\n      tag_70\n      swap2\n      swap1\n      tag_71\n      jump\t// in\n    tag_70:\n      swap3\n      pop\n      pop\n      dup2\n      swap1\n      sstore\n      pop\n        /* \"contracts/smartbank.sol\":1284:1294  msg.sender */\n      caller\n        /* \"contracts/smartbank.sol\":1276:1304  payable(msg.sender).transfer */\n      0xffffffffffffffffffffffffffffffffffffffff\n      and\n        /* \"contracts/smartbank.sol\":1276:1312  payable(msg.sender).transfer(amount) */\n      0x08fc\n        /* \"contracts/smartbank.sol\":1305:1311  amount */\n      dup3\n        /* \"contracts/smartbank.sol\":1276:1312  payable(msg.sender).transfer(amount) */\n      swap1\n      dup2\n      iszero\n      mul\n      swap1\n      mload(0x40)\n      0x00\n      mload(0x40)\n      dup1\n      dup4\n      sub\n      dup2\n      dup6\n      dup9\n      dup9\n      call\n      swap4\n      pop\n      pop\n      pop\n      pop\n      iszero\n      dup1\n      iszero\n      tag_73\n      jumpi\n      returndatacopy(0x00, 0x00, returndatasize)\n      revert(0x00, returndatasize)\n    tag_73:\n      pop\n        /* \"contracts/smartbank.sol\":1337:1347  msg.sender */\n      caller\n        /* \"contracts/smartbank.sol\":1328:1356  Withdraw(msg.sender, amount) */\n      0xffffffffffffffffffffffffffffffffffffffff\n      and\n      0x884edad9ce6fa2440d8a54cc123490eb96d2768479d49ff9c7366125a9424364\n        /* \"contracts/smartbank.sol\":1349:1355  amount */\n      dup3\n        /* \"contracts/smartbank.sol\":1328:1356  Withdraw(msg.sender, amount) */\n      mload(0x40)\n      tag_74\n      swap2\n      swap1\n      tag_17\n      jump\t// in\n    tag_74:\n      mload(0x40)\n      dup1\n      swap2\n      sub\n      swap1\n      log2\n        /* \"contracts/smartbank.sol\":1095:1364  function withdraw(uint256 amount) public whenNotPaused {... */\n      pop\n      jump\t// out\n        /* \"contracts/smartbank.sol\":114:132  bool public paused */\n    tag_40:\n      0x00\n      0x14\n      swap1\n      sload\n      swap1\n      0x0100\n      exp\n      swap1\n      div\n      0xff\n      and\n      dup2\n      jump\t// out\n        /* \"contracts/smartbank.sol\":87:107  address public owner */\n    tag_45:\n      0x00\n      0x00\n      swap1\n      sload\n      swap1\n      0x0100\n      exp\n      swap1\n      div\n      0xffffffffffffffffffffffffffffffffffffffff\n      and\n      dup2\n      jump\t// out\n        /* \"contracts/smartbank.sol\":1431:1759  function transfer(address to, uint256 amount) public whenNotPaused {... */\n    tag_52:\n        /* \"contracts/smartbank.sol\":701:707  paused */\n      0x00\n      0x14\n      swap1\n      sload\n      swap1\n      0x0100\n      exp\n      swap1\n      div\n      0xff\n      and\n        /* \"contracts/smartbank.sol\":700:707  !paused */\n      iszero\n        /* \"contracts/smartbank.sol\":692:727  require(!paused, \"Contract paused\") */\n      tag_76\n      jumpi\n      mload(0x40)\n      0x08c379a000000000000000000000000000000000000000000000000000000000\n      dup2\n      mstore\n      0x04\n      add\n      tag_77\n      swap1\n      tag_65\n      jump\t// in\n    tag_77:\n      mload(0x40)\n      dup1\n      swap2\n      sub\n      swap1\n      revert\n    tag_76:\n        /* \"contracts/smartbank.sol\":1531:1532  0 */\n      0x00\n        /* \"contracts/smartbank.sol\":1517:1533  to != address(0) */\n      0xffffffffffffffffffffffffffffffffffffffff\n      and\n        /* \"contracts/smartbank.sol\":1517:1519  to */\n      dup3\n        /* \"contracts/smartbank.sol\":1517:1533  to != address(0) */\n      0xffffffffffffffffffffffffffffffffffffffff\n      and\n      sub\n        /* \"contracts/smartbank.sol\":1509:1553  require(to != address(0), \"Invalid address\") */\n      tag_79\n      jumpi\n      mload(0x40)\n      0x08c379a000000000000000000000000000000000000000000000000000000000\n      dup2\n      mstore\n      0x04\n      add\n      tag_80\n      swap1\n      tag_81\n      jump\t// in\n    tag_80:\n      mload(0x40)\n      dup1\n      swap2\n      sub\n      swap1\n      revert\n    tag_79:\n        /* \"contracts/smartbank.sol\":1596:1602  amount */\n      dup1\n        /* \"contracts/smartbank.sol\":1572:1580  balances */\n      0x01\n        /* \"contracts/smartbank.sol\":1572:1592  balances[msg.sender] */\n      0x00\n        /* \"contracts/smartbank.sol\":1581:1591  msg.sender */\n      caller\n        /* \"contracts/smartbank.sol\":1572:1592  balances[msg.sender] */\n      0xffffffffffffffffffffffffffffffffffffffff\n      and\n      0xffffffffffffffffffffffffffffffffffffffff\n      and\n      dup2\n      mstore\n      0x20\n      add\n      swap1\n      dup2\n      mstore\n      0x20\n      add\n      0x00\n      keccak256\n      sload\n        /* \"contracts/smartbank.sol\":1572:1602  balances[msg.sender] >= amount */\n      lt\n      iszero\n        /* \"contracts/smartbank.sol\":1564:1627  require(balances[msg.sender] >= amount, \"Insufficient balance\") */\n      tag_82\n      jumpi\n      mload(0x40)\n      0x08c379a000000000000000000000000000000000000000000000000000000000\n      dup2\n      mstore\n      0x04\n      add\n      tag_83\n      swap1\n      tag_69\n      jump\t// in\n    tag_83:\n      mload(0x40)\n      dup1\n      swap2\n      sub\n      swap1\n      revert\n    tag_82:\n        /* \"contracts/smartbank.sol\":1664:1670  amount */\n      dup1\n        /* \"contracts/smartbank.sol\":1640:1648  balances */\n      0x01\n        /* \"contracts/smartbank.sol\":1640:1660  balances[msg.sender] */\n      0x00\n        /* \"contracts/smartbank.sol\":1649:1659  msg.sender */\n      caller\n        /* \"contracts/smartbank.sol\":1640:1660  balances[msg.sender] */\n      0xffffffffffffffffffffffffffffffffffffffff\n      and\n      0xffffffffffffffffffffffffffffffffffffffff\n      and\n      dup2\n      mstore\n      0x20\n      add\n      swap1\n      dup2\n      mstore\n      0x20\n      add\n      0x00\n      keccak256\n      0x00\n        /* \"contracts/smartbank.sol\":1640:1670  balances[msg.sender] -= amount */\n      dup3\n      dup3\n      sload\n      tag_84\n      swap2\n      swap1\n      tag_71\n      jump\t// in\n    tag_84:\n      swap3\n      pop\n      pop\n      dup2\n      swap1\n      sstore\n      pop\n        /* \"contracts/smartbank.sol\":1697:1703  amount */\n      dup1\n        /* \"contracts/smartbank.sol\":1681:1689  balances */\n      0x01\n        /* \"contracts/smartbank.sol\":1681:1693  balances[to] */\n      0x00\n        /* \"contracts/smartbank.sol\":1690:1692  to */\n      dup5\n        /* \"contracts/smartbank.sol\":1681:1693  balances[to] */\n      0xffffffffffffffffffffffffffffffffffffffff\n      and\n      0xffffffffffffffffffffffffffffffffffffffff\n      and\n      dup2\n      mstore\n      0x20\n      add\n      swap1\n      dup2\n      mstore\n      0x20\n      add\n      0x00\n      keccak256\n      0x00\n        /* \"contracts/smartbank.sol\":1681:1703  balances[to] += amount */\n      dup3\n      dup3\n      sload\n      tag_85\n      swap2\n      swap1\n      tag_15\n      jump\t// in\n    tag_85:\n      swap3\n      pop\n      pop\n      dup2\n      swap1\n      sstore\n      pop\n        /* \"contracts/smartbank.sol\":1740:1742  to */\n      dup2\n        /* \"contracts/smartbank.sol\":1719:1751  Transfer(msg.sender, to, amount) */\n      0xffffffffffffffffffffffffffffffffffffffff\n      and\n        /* \"contracts/smartbank.sol\":1728:1738  msg.sender */\n      caller\n        /* \"contracts/smartbank.sol\":1719:1751  Transfer(msg.sender, to, amount) */\n      0xffffffffffffffffffffffffffffffffffffffff\n      and\n      0xddf252ad1be2c89b69c2b068fc378daa952ba7f163c4a11628f55a4df523b3ef\n        /* \"contracts/smartbank.sol\":1744:1750  amount */\n      dup4\n        /* \"contracts/smartbank.sol\":1719:1751  Transfer(msg.sender, to, amount) */\n      mload(0x40)\n      tag_86\n      swap2\n      swap1\n      tag_17\n      jump\t// in\n    tag_86:\n      mload(0x40)\n      dup1\n      swap2\n      sub\n      swap1\n      log3\n        /* \"contracts/smartbank.sol\":1431:1759  function transfer(address to, uint256 amount) public whenNotPaused {... */\n      pop\n      pop\n      jump\t// out\n        /* \"contracts/smartbank.sol\":843:1041  function deposit() public payable whenNotPaused {... */\n    tag_54:\n        /* \"contracts/smartbank.sol\":701:707  paused */\n      0x00\n      0x14\n      swap1\n      sload\n      swap1\n      0x0100\n      exp\n      swap1\n      div\n      0xff\n      and\n        /* \"contracts/smartbank.sol\":700:707  !paused */\n      iszero\n        /* \"contracts/smartbank.sol\":692:727  require(!paused, \"Contract paused\") */\n      tag_88\n      jumpi\n      mload(0x40)\n      0x08c379a000000000000000000000000000000000000000000000000000000000\n      dup2\n      mstore\n      0x04\n      add\n      tag_89\n      swap1\n      tag_65\n      jump\t// in\n    tag_89:\n      mload(0x40)\n      dup1\n      swap2\n      sub\n      swap1\n      revert\n    tag_88:\n        /* \"contracts/smartbank.sol\":922:923  0 */\n      0x00\n        /* \"contracts/smartbank.sol\":910:919  msg.value */\n      callvalue\n        /* \"contracts/smartbank.sol\":910:923  msg.value > 0 */\n      gt\n        /* \"contracts/smartbank.sol\":902:943  require(msg.value > 0, \"Must send Ether\") */\n      tag_91\n      jumpi\n      mload(0x40)\n      0x08c379a000000000000000000000000000000000000000000000000000000000\n      dup2\n      mstore\n      0x04\n      add\n      tag_92\n      swap1\n      tag_93\n      jump\t// in\n    tag_92:\n      mload(0x40)\n      dup1\n      swap2\n      sub\n      swap1\n      revert\n    tag_91:\n        /* \"contracts/smartbank.sol\":978:987  msg.value */\n      callvalue\n        /* \"contracts/smartbank.sol\":954:962  balances */\n      0x01\n        /* \"contracts/smartbank.sol\":954:974  balances[msg.sender] */\n      0x00\n        /* \"contracts/smartbank.sol\":963:973  msg.sender */\n      caller\n        /* \"contracts/smartbank.sol\":954:974  balances[msg.sender] */\n      0xffffffffffffffffffffffffffffffffffffffff\n      and\n      0xffffffffffffffffffffffffffffffffffffffff\n      and\n      dup2\n      mstore\n      0x20\n      add\n      swap1\n      dup2\n      mstore\n      0x20\n      add\n      0x00\n      keccak256\n      0x00\n        /* \"contracts/smartbank.sol\":954:987  balances[msg.sender] += msg.value */\n      dup3\n      dup3\n      sload\n      tag_94\n      swap2\n      swap1\n      tag_15\n      jump\t// in\n    tag_94:\n      swap3\n      pop\n      pop\n      dup2\n      swap1\n      sstore\n      pop\n        /* \"contracts/smartbank.sol\":1011:1021  msg.sender */\n      caller\n        /* \"contracts/smartbank.sol\":1003:1033  Deposit(msg.sender, msg.value) */\n      0xffffffffffffffffffffffffffffffffffffffff\n      and\n      0xe1fffcc4923d04b559f4d29a8bfc6cda04eb5b0d3c460751c2402c5c5cc9109c\n        /* \"contracts/smartbank.sol\":1023:1032  msg.value */\n      callvalue\n        /* \"contracts/smartbank.sol\":1003:1033  Deposit(msg.sender, msg.value) */\n      mload(0x40)\n      tag_95\n      swap2\n      swap1\n      tag_17\n      jump\t// in\n    tag_95:\n      mload(0x40)\n      dup1\n      swap2\n      sub\n      swap1\n      log2\n        /* \"contracts/smartbank.sol\":843:1041  function deposit() public payable whenNotPaused {... */\n      jump\t// out\n        /* \"#utility.yul\":7:84   */\n    tag_96:\n        /* \"#utility.yul\":44:51   */\n      0x00\n        /* \"#utility.yul\":73:78   */\n      dup2\n        /* \"#utility.yul\":62:78   */\n      swap1\n      pop\n        /* \"#utility.yul\":7:84   */\n      swap2\n      swap1\n      pop\n      jump\t// out\n        /* \"#utility.yul\":90:270   */\n    tag_97:\n        /* \"#utility.yul\":138:215   */\n      0x4e487b7100000000000000000000000000000000000000000000000000000000\n        /* \"#utility.yul\":135:136   */\n      0x00\n        /* \"#utility.yul\":128:216   */\n      mstore\n        /* \"#utility.yul\":235:239   */\n      0x11\n        /* \"#utility.yul\":232:233   */\n      0x04\n        /* \"#utility.yul\":225:240   */\n      mstore\n        /* \"#utility.yul\":259:263   */\n      0x24\n        /* \"#utility.yul\":256:257   */\n      0x00\n        /* \"#utility.yul\":249:264   */\n      revert\n        /* \"#utility.yul\":276:467   */\n    tag_15:\n        /* \"#utility.yul\":316:319   */\n      0x00\n        /* \"#utility.yul\":335:355   */\n      tag_128\n        /* \"#utility.yul\":353:354   */\n      dup3\n        /* \"#utility.yul\":335:355   */\n      tag_96\n      jump\t// in\n    tag_128:\n        /* \"#utility.yul\":330:355   */\n      swap2\n      pop\n        /* \"#utility.yul\":369:389   */\n      tag_129\n        /* \"#utility.yul\":387:388   */\n      dup4\n        /* \"#utility.yul\":369:389   */\n      tag_96\n      jump\t// in\n    tag_129:\n        /* \"#utility.yul\":364:389   */\n      swap3\n      pop\n        /* \"#utility.yul\":412:413   */\n      dup3\n        /* \"#utility.yul\":409:410   */\n      dup3\n        /* \"#utility.yul\":405:414   */\n      add\n        /* \"#utility.yul\":398:414   */\n      swap1\n      pop\n        /* \"#utility.yul\":433:436   */\n      dup1\n        /* \"#utility.yul\":430:431   */\n      dup3\n        /* \"#utility.yul\":427:437   */\n      gt\n        /* \"#utility.yul\":424:460   */\n      iszero\n      tag_130\n      jumpi\n        /* \"#utility.yul\":440:458   */\n      tag_131\n      tag_97\n      jump\t// in\n    tag_131:\n        /* \"#utility.yul\":424:460   */\n    tag_130:\n        /* \"#utility.yul\":276:467   */\n      swap3\n      swap2\n      pop\n      pop\n      jump\t// out\n        /* \"#utility.yul\":473:591   */\n    tag_98:\n        /* \"#utility.yul\":560:584   */\n      tag_133\n        /* \"#utility.yul\":578:583   */\n      dup2\n        /* \"#utility.yul\":560:584   */\n      tag_96\n      jump\t// in\n    tag_133:\n        /* \"#utility.yul\":555:558   */\n      dup3\n        /* \"#utility.yul\":548:585   */\n      mstore\n        /* \"#utility.yul\":473:591   */\n      pop\n      pop\n      jump\t// out\n        /* \"#utility.yul\":597:819   */\n    tag_17:\n        /* \"#utility.yul\":690:694   */\n      0x00\n        /* \"#utility.yul\":728:730   */\n      0x20\n        /* \"#utility.yul\":717:726   */\n      dup3\n        /* \"#utility.yul\":713:731   */\n      add\n        /* \"#utility.yul\":705:731   */\n      swap1\n      pop\n        /* \"#utility.yul\":741:812   */\n      tag_135\n        /* \"#utility.yul\":809:810   */\n      0x00\n        /* \"#utility.yul\":798:807   */\n      dup4\n        /* \"#utility.yul\":794:811   */\n      add\n        /* \"#utility.yul\":785:791   */\n      dup5\n        /* \"#utility.yul\":741:812   */\n      tag_98\n      jump\t// in\n    tag_135:\n        /* \"#utility.yul\":597:819   */\n      swap3\n      swap2\n      pop\n      pop\n      jump\t// out\n        /* \"#utility.yul\":906:1023   */\n    tag_100:\n        /* \"#utility.yul\":1015:1016   */\n      0x00\n        /* \"#utility.yul\":1012:1013   */\n      0x00\n        /* \"#utility.yul\":1005:1017   */\n      revert\n        /* \"#utility.yul\":1152:1242   */\n    tag_102:\n        /* \"#utility.yul\":1186:1193   */\n      0x00\n        /* \"#utility.yul\":1229:1234   */\n      dup2\n        /* \"#utility.yul\":1222:1235   */\n      iszero\n        /* \"#utility.yul\":1215:1236   */\n      iszero\n        /* \"#utility.yul\":1204:1236   */\n      swap1\n      pop\n        /* \"#utility.yul\":1152:1242   */\n      swap2\n      swap1\n      pop\n      jump\t// out\n        /* \"#utility.yul\":1248:1364   */\n    tag_103:\n        /* \"#utility.yul\":1318:1339   */\n      tag_141\n        /* \"#utility.yul\":1333:1338   */\n      dup2\n        /* \"#utility.yul\":1318:1339   */\n      tag_102\n      jump\t// in\n    tag_141:\n        /* \"#utility.yul\":1311:1316   */\n      dup2\n        /* \"#utility.yul\":1308:1340   */\n      eq\n        /* \"#utility.yul\":1298:1358   */\n      tag_142\n      jumpi\n        /* \"#utility.yul\":1354:1355   */\n      0x00\n        /* \"#utility.yul\":1351:1352   */\n      0x00\n        /* \"#utility.yul\":1344:1356   */\n      revert\n        /* \"#utility.yul\":1298:1358   */\n    tag_142:\n        /* \"#utility.yul\":1248:1364   */\n      pop\n      jump\t// out\n        /* \"#utility.yul\":1370:1503   */\n    tag_104:\n        /* \"#utility.yul\":1413:1418   */\n      0x00\n        /* \"#utility.yul\":1451:1457   */\n      dup2\n        /* \"#utility.yul\":1438:1458   */\n      calldataload\n        /* \"#utility.yul\":1429:1458   */\n      swap1\n      pop\n        /* \"#utility.yul\":1467:1497   */\n      tag_144\n        /* \"#utility.yul\":1491:1496   */\n      dup2\n        /* \"#utility.yul\":1467:1497   */\n      tag_103\n      jump\t// in\n    tag_144:\n        /* \"#utility.yul\":1370:1503   */\n      swap3\n      swap2\n      pop\n      pop\n      jump\t// out\n        /* \"#utility.yul\":1509:1832   */\n    tag_21:\n        /* \"#utility.yul\":1565:1571   */\n      0x00\n        /* \"#utility.yul\":1614:1616   */\n      0x20\n        /* \"#utility.yul\":1602:1611   */\n      dup3\n        /* \"#utility.yul\":1593:1600   */\n      dup5\n        /* \"#utility.yul\":1589:1612   */\n      sub\n        /* \"#utility.yul\":1585:1617   */\n      slt\n        /* \"#utility.yul\":1582:1701   */\n      iszero\n      tag_146\n      jumpi\n        /* \"#utility.yul\":1620:1699   */\n      tag_147\n      tag_100\n      jump\t// in\n    tag_147:\n        /* \"#utility.yul\":1582:1701   */\n    tag_146:\n        /* \"#utility.yul\":1740:1741   */\n      0x00\n        /* \"#utility.yul\":1765:1815   */\n      tag_148\n        /* \"#utility.yul\":1807:1814   */\n      dup5\n        /* \"#utility.yul\":1798:1804   */\n      dup3\n        /* \"#utility.yul\":1787:1796   */\n      dup6\n        /* \"#utility.yul\":1783:1805   */\n      add\n        /* \"#utility.yul\":1765:1815   */\n      tag_104\n      jump\t// in\n    tag_148:\n        /* \"#utility.yul\":1755:1815   */\n      swap2\n      pop\n        /* \"#utility.yul\":1711:1825   */\n      pop\n        /* \"#utility.yul\":1509:1832   */\n      swap3\n      swap2\n      pop\n      pop\n      jump\t// out\n        /* \"#utility.yul\":1838:1964   */\n    tag_105:\n        /* \"#utility.yul\":1875:1882   */\n      0x00\n        /* \"#utility.yul\":1915:1957   */\n      0xffffffffffffffffffffffffffffffffffffffff\n        /* \"#utility.yul\":1908:1913   */\n      dup3\n        /* \"#utility.yul\":1904:1958   */\n      and\n        /* \"#utility.yul\":1893:1958   */\n      swap1\n      pop\n        /* \"#utility.yul\":1838:1964   */\n      swap2\n      swap1\n      pop\n      jump\t// out\n        /* \"#utility.yul\":1970:2066   */\n    tag_106:\n        /* \"#utility.yul\":2007:2014   */\n      0x00\n        /* \"#utility.yul\":2036:2060   */\n      tag_151\n        /* \"#utility.yul\":2054:2059   */\n      dup3\n        /* \"#utility.yul\":2036:2060   */\n      tag_105\n      jump\t// in\n    tag_151:\n        /* \"#utility.yul\":2025:2060   */\n      swap1\n      pop\n        /* \"#utility.yul\":1970:2066   */\n      swap2\n      swap1\n      pop\n      jump\t// out\n        /* \"#utility.yul\":2072:2194   */\n    tag_107:\n        /* \"#utility.yul\":2145:2169   */\n      tag_153\n        /* \"#utility.yul\":2163:2168   */\n      dup2\n        /* \"#utility.yul\":2145:2169   */\n      tag_106\n      jump\t// in\n    tag_153:\n        /* \"#utility.yul\":2138:2143   */\n      dup2\n        /* \"#utility.yul\":2135:2170   */\n      eq\n        /* \"#utility.yul\":2125:2188   */\n      tag_154\n      jumpi\n        /* \"#utility.yul\":2184:2185   */\n      0x00\n        /* \"#utility.yul\":2181:2182   */\n      0x00\n        /* \"#utility.yul\":2174:2186   */\n      revert\n        /* \"#utility.yul\":2125:2188   */\n    tag_154:\n        /* \"#utility.yul\":2072:2194   */\n      pop\n      jump\t// out\n        /* \"#utility.yul\":2200:2339   */\n    tag_108:\n        /* \"#utility.yul\":2246:2251   */\n      0x00\n        /* \"#utility.yul\":2284:2290   */\n      dup2\n        /* \"#utility.yul\":2271:2291   */\n      calldataload\n        /* \"#utility.yul\":2262:2291   */\n      swap1\n      pop\n        /* \"#utility.yul\":2300:2333   */\n      tag_156\n        /* \"#utility.yul\":2327:2332   */\n      dup2\n        /* \"#utility.yul\":2300:2333   */\n      tag_107\n      jump\t// in\n    tag_156:\n        /* \"#utility.yul\":2200:2339   */\n      swap3\n      swap2\n      pop\n      pop\n      jump\t// out\n        /* \"#utility.yul\":2345:2674   */\n    tag_30:\n        /* \"#utility.yul\":2404:2410   */\n      0x00\n        /* \"#utility.yul\":2453:2455   */\n      0x20\n        /* \"#utility.yul\":2441:2450   */\n      dup3\n        /* \"#utility.yul\":2432:2439   */\n      dup5\n        /* \"#utility.yul\":2428:2451   */\n      sub\n        /* \"#utility.yul\":2424:2456   */\n      slt\n        /* \"#utility.yul\":2421:2540   */\n      iszero\n      tag_158\n      jumpi\n        /* \"#utility.yul\":2459:2538   */\n      tag_159\n      tag_100\n      jump\t// in\n    tag_159:\n        /* \"#utility.yul\":2421:2540   */\n    tag_158:\n        /* \"#utility.yul\":2579:2580   */\n      0x00\n        /* \"#utility.yul\":2604:2657   */\n      tag_160\n        /* \"#utility.yul\":2649:2656   */\n      dup5\n        /* \"#utility.yul\":2640:2646   */\n      dup3\n        /* \"#utility.yul\":2629:2638   */\n      dup6\n        /* \"#utility.yul\":2625:2647   */\n      add\n        /* \"#utility.yul\":2604:2657   */\n      tag_108\n      jump\t// in\n    tag_160:\n        /* \"#utility.yul\":2594:2657   */\n      swap2\n      pop\n        /* \"#utility.yul\":2550:2667   */\n      pop\n        /* \"#utility.yul\":2345:2674   */\n      swap3\n      swap2\n      pop\n      pop\n      jump\t// out\n        /* \"#utility.yul\":2680:2802   */\n    tag_109:\n        /* \"#utility.yul\":2753:2777   */\n      tag_162\n        /* \"#utility.yul\":2771:2776   */\n      dup2\n        /* \"#utility.yul\":2753:2777   */\n      tag_96\n      jump\t// in\n    tag_162:\n        /* \"#utility.yul\":2746:2751   */\n      dup2\n        /* \"#utility.yul\":2743:2778   */\n      eq\n        /* \"#utility.yul\":2733:2796   */\n      tag_163\n      jumpi\n        /* \"#utility.yul\":2792:2793   */\n      0x00\n        /* \"#utility.yul\":2789:2790   */\n      0x00\n        /* \"#utility.yul\":2782:2794   */\n      revert\n        /* \"#utility.yul\":2733:2796   */\n    tag_163:\n        /* \"#utility.yul\":2680:2802   */\n      pop\n      jump\t// out\n        /* \"#utility.yul\":2808:2947   */\n    tag_110:\n        /* \"#utility.yul\":2854:2859   */\n      0x00\n        /* \"#utility.yul\":2892:2898   */\n      dup2\n        /* \"#utility.yul\":2879:2899   */\n      calldataload\n        /* \"#utility.yul\":2870:2899   */\n      swap1\n      pop\n        /* \"#utility.yul\":2908:2941   */\n      tag_165\n        /* \"#utility.yul\":2935:2940   */\n      dup2\n        /* \"#utility.yul\":2908:2941   */\n      tag_109\n      jump\t// in\n    tag_165:\n        /* \"#utility.yul\":2808:2947   */\n      swap3\n      swap2\n      pop\n      pop\n      jump\t// out\n        /* \"#utility.yul\":2953:3282   */\n    tag_36:\n        /* \"#utility.yul\":3012:3018   */\n      0x00\n        /* \"#utility.yul\":3061:3063   */\n      0x20\n        /* \"#utility.yul\":3049:3058   */\n      dup3\n        /* \"#utility.yul\":3040:3047   */\n      dup5\n        /* \"#utility.yul\":3036:3059   */\n      sub\n        /* \"#utility.yul\":3032:3064   */\n      slt\n        /* \"#utility.yul\":3029:3148   */\n      iszero\n      tag_167\n      jumpi\n        /* \"#utility.yul\":3067:3146   */\n      tag_168\n      tag_100\n      jump\t// in\n    tag_168:\n        /* \"#utility.yul\":3029:3148   */\n    tag_167:\n        /* \"#utility.yul\":3187:3188   */\n      0x00\n        /* \"#utility.yul\":3212:3265   */\n      tag_169\n        /* \"#utility.yul\":3257:3264   */\n      dup5\n        /* \"#utility.yul\":3248:3254   */\n      dup3\n        /* \"#utility.yul\":3237:3246   */\n      dup6\n        /* \"#utility.yul\":3233:3255   */\n      add\n        /* \"#utility.yul\":3212:3265   */\n      tag_110\n      jump\t// in\n    tag_169:\n        /* \"#utility.yul\":3202:3265   */\n      swap2\n      pop\n        /* \"#utility.yul\":3158:3275   */\n      pop\n        /* \"#utility.yul\":2953:3282   */\n      swap3\n      swap2\n      pop\n      pop\n      jump\t// out\n        /* \"#utility.yul\":3288:3397   */\n    tag_111:\n        /* \"#utility.yul\":3369:3390   */\n      tag_171\n        /* \"#utility.yul\":3384:3389   */\n      dup2\n        /* \"#utility.yul\":3369:3390   */\n      tag_102\n      jump\t// in\n    tag_171:\n        /* \"#utility.yul\":3364:3367   */\n      dup3\n        /* \"#utility.yul\":3357:3391   */\n      mstore\n        /* \"#utility.yul\":3288:3397   */\n      pop\n      pop\n      jump\t// out\n        /* \"#utility.yul\":3403:3613   */\n    tag_42:\n        /* \"#utility.yul\":3490:3494   */\n      0x00\n        /* \"#utility.yul\":3528:3530   */\n      0x20\n        /* \"#utility.yul\":3517:3526   */\n      dup3\n        /* \"#utility.yul\":3513:3531   */\n      add\n        /* \"#utility.yul\":3505:3531   */\n      swap1\n      pop\n        /* \"#utility.yul\":3541:3606   */\n      tag_173\n        /* \"#utility.yul\":3603:3604   */\n      0x00\n        /* \"#utility.yul\":3592:3601   */\n      dup4\n        /* \"#utility.yul\":3588:3605   */\n      add\n        /* \"#utility.yul\":3579:3585   */\n      dup5\n        /* \"#utility.yul\":3541:3606   */\n      tag_111\n      jump\t// in\n    tag_173:\n        /* \"#utility.yul\":3403:3613   */\n      swap3\n      swap2\n      pop\n      pop\n      jump\t// out\n        /* \"#utility.yul\":3619:3737   */\n    tag_112:\n        /* \"#utility.yul\":3706:3730   */\n      tag_175\n        /* \"#utility.yul\":3724:3729   */\n      dup2\n        /* \"#utility.yul\":3706:3730   */\n      tag_106\n      jump\t// in\n    tag_175:\n        /* \"#utility.yul\":3701:3704   */\n      dup3\n        /* \"#utility.yul\":3694:3731   */\n      mstore\n        /* \"#utility.yul\":3619:3737   */\n      pop\n      pop\n      jump\t// out\n        /* \"#utility.yul\":3743:3965   */\n    tag_47:\n        /* \"#utility.yul\":3836:3840   */\n      0x00\n        /* \"#utility.yul\":3874:3876   */\n      0x20\n        /* \"#utility.yul\":3863:3872   */\n      dup3\n        /* \"#utility.yul\":3859:3877   */\n      add\n        /* \"#utility.yul\":3851:3877   */\n      swap1\n      pop\n        /* \"#utility.yul\":3887:3958   */\n      tag_177\n        /* \"#utility.yul\":3955:3956   */\n      0x00\n        /* \"#utility.yul\":3944:3953   */\n      dup4\n        /* \"#utility.yul\":3940:3957   */\n      add\n        /* \"#utility.yul\":3931:3937   */\n      dup5\n        /* \"#utility.yul\":3887:3958   */\n      tag_112\n      jump\t// in\n    tag_177:\n        /* \"#utility.yul\":3743:3965   */\n      swap3\n      swap2\n      pop\n      pop\n      jump\t// out\n        /* \"#utility.yul\":3971:4445   */\n    tag_51:\n        /* \"#utility.yul\":4039:4045   */\n      0x00\n        /* \"#utility.yul\":4047:4053   */\n      0x00\n        /* \"#utility.yul\":4096:4098   */\n      0x40\n        /* \"#utility.yul\":4084:4093   */\n      dup4\n        /* \"#utility.yul\":4075:4082   */\n      dup6\n        /* \"#utility.yul\":4071:4094   */\n      sub\n        /* \"#utility.yul\":4067:4099   */\n      slt\n        /* \"#utility.yul\":4064:4183   */\n      iszero\n      tag_179\n      jumpi\n        /* \"#utility.yul\":4102:4181   */\n      tag_180\n      tag_100\n      jump\t// in\n    tag_180:\n        /* \"#utility.yul\":4064:4183   */\n    tag_179:\n        /* \"#utility.yul\":4222:4223   */\n      0x00\n        /* \"#utility.yul\":4247:4300   */\n      tag_181\n        /* \"#utility.yul\":4292:4299   */\n      dup6\n        /* \"#utility.yul\":4283:4289   */\n      dup3\n        /* \"#utility.yul\":4272:4281   */\n      dup7\n        /* \"#utility.yul\":4268:4290   */\n      add\n        /* \"#utility.yul\":4247:4300   */\n      tag_108\n      jump\t// in\n    tag_181:\n        /* \"#utility.yul\":4237:4300   */\n      swap3\n      pop\n        /* \"#utility.yul\":4193:4310   */\n      pop\n        /* \"#utility.yul\":4349:4351   */\n      0x20\n        /* \"#utility.yul\":4375:4428   */\n      tag_182\n        /* \"#utility.yul\":4420:4427   */\n      dup6\n        /* \"#utility.yul\":4411:4417   */\n      dup3\n        /* \"#utility.yul\":4400:4409   */\n      dup7\n        /* \"#utility.yul\":4396:4418   */\n      add\n        /* \"#utility.yul\":4375:4428   */\n      tag_110\n      jump\t// in\n    tag_182:\n        /* \"#utility.yul\":4365:4428   */\n      swap2\n      pop\n        /* \"#utility.yul\":4320:4438   */\n      pop\n        /* \"#utility.yul\":3971:4445   */\n      swap3\n      pop\n      swap3\n      swap1\n      pop\n      jump\t// out\n        /* \"#utility.yul\":4451:4620   */\n    tag_113:\n        /* \"#utility.yul\":4535:4546   */\n      0x00\n        /* \"#utility.yul\":4569:4575   */\n      dup3\n        /* \"#utility.yul\":4564:4567   */\n      dup3\n        /* \"#utility.yul\":4557:4576   */\n      mstore\n        /* \"#utility.yul\":4609:4613   */\n      0x20\n        /* \"#utility.yul\":4604:4607   */\n      dup3\n        /* \"#utility.yul\":4600:4614   */\n      add\n        /* \"#utility.yul\":4585:4614   */\n      swap1\n      pop\n        /* \"#utility.yul\":4451:4620   */\n      swap3\n      swap2\n      pop\n      pop\n      jump\t// out\n        /* \"#utility.yul\":4626:4785   */\n    tag_114:\n        /* \"#utility.yul\":4766:4777   */\n      0x4e6f74206f776e65720000000000000000000000000000000000000000000000\n        /* \"#utility.yul\":4762:4763   */\n      0x00\n        /* \"#utility.yul\":4754:4760   */\n      dup3\n        /* \"#utility.yul\":4750:4764   */\n      add\n        /* \"#utility.yul\":4743:4778   */\n      mstore\n        /* \"#utility.yul\":4626:4785   */\n      pop\n      jump\t// out\n        /* \"#utility.yul\":4791:5156   */\n    tag_115:\n        /* \"#utility.yul\":4933:4936   */\n      0x00\n        /* \"#utility.yul\":4954:5020   */\n      tag_186\n        /* \"#utility.yul\":5018:5019   */\n      0x09\n        /* \"#utility.yul\":5013:5016   */\n      dup4\n        /* \"#utility.yul\":4954:5020   */\n      tag_113\n      jump\t// in\n    tag_186:\n        /* \"#utility.yul\":4947:5020   */\n      swap2\n      pop\n        /* \"#utility.yul\":5029:5122   */\n      tag_187\n        /* \"#utility.yul\":5118:5121   */\n      dup3\n        /* \"#utility.yul\":5029:5122   */\n      tag_114\n      jump\t// in\n    tag_187:\n        /* \"#utility.yul\":5147:5149   */\n      0x20\n        /* \"#utility.yul\":5142:5145   */\n      dup3\n        /* \"#utility.yul\":5138:5150   */\n      add\n        /* \"#utility.yul\":5131:5150   */\n      swap1\n      pop\n        /* \"#utility.yul\":4791:5156   */\n      swap2\n      swap1\n      pop\n      jump\t// out\n        /* \"#utility.yul\":5162:5581   */\n    tag_58:\n        /* \"#utility.yul\":5328:5332   */\n      0x00\n        /* \"#utility.yul\":5366:5368   */\n      0x20\n        /* \"#utility.yul\":5355:5364   */\n      dup3\n        /* \"#utility.yul\":5351:5369   */\n      add\n        /* \"#utility.yul\":5343:5369   */\n      swap1\n      pop\n        /* \"#utility.yul\":5415:5424   */\n      dup2\n        /* \"#utility.yul\":5409:5413   */\n      dup2\n        /* \"#utility.yul\":5405:5425   */\n      sub\n        /* \"#utility.yul\":5401:5402   */\n      0x00\n        /* \"#utility.yul\":5390:5399   */\n      dup4\n        /* \"#utility.yul\":5386:5403   */\n      add\n        /* \"#utility.yul\":5379:5426   */\n      mstore\n        /* \"#utility.yul\":5443:5574   */\n      tag_189\n        /* \"#utility.yul\":5569:5573   */\n      dup2\n        /* \"#utility.yul\":5443:5574   */\n      tag_115\n      jump\t// in\n    tag_189:\n        /* \"#utility.yul\":5435:5574   */\n      swap1\n      pop\n        /* \"#utility.yul\":5162:5581   */\n      swap2\n      swap1\n      pop\n      jump\t// out\n        /* \"#utility.yul\":5587:5752   */\n    tag_116:\n        /* \"#utility.yul\":5727:5744   */\n      0x436f6e7472616374207061757365640000000000000000000000000000000000\n        /* \"#utility.yul\":5723:5724   */\n      0x00\n        /* \"#utility.yul\":5715:5721   */\n      dup3\n        /* \"#utility.yul\":5711:5725   */\n      add\n        /* \"#utility.yul\":5704:5745   */\n      mstore\n        /* \"#utility.yul\":5587:5752   */\n      pop\n      jump\t// out\n        /* \"#utility.yul\":5758:6124   */\n    tag_117:\n        /* \"#utility.yul\":5900:5903   */\n      0x00\n        /* \"#utility.yul\":5921:5988   */\n      tag_192\n        /* \"#utility.yul\":5985:5987   */\n      0x0f\n        /* \"#utility.yul\":5980:5983   */\n      dup4\n        /* \"#utility.yul\":5921:5988   */\n      tag_113\n      jump\t// in\n    tag_192:\n        /* \"#utility.yul\":5914:5988   */\n      swap2\n      pop\n        /* \"#utility.yul\":5997:6090   */\n      tag_193\n        /* \"#utility.yul\":6086:6089   */\n      dup3\n        /* \"#utility.yul\":5997:6090   */\n      tag_116\n      jump\t// in\n    tag_193:\n        /* \"#utility.yul\":6115:6117   */\n      0x20\n        /* \"#utility.yul\":6110:6113   */\n      dup3\n        /* \"#utility.yul\":6106:6118   */\n      add\n        /* \"#utility.yul\":6099:6118   */\n      swap1\n      pop\n        /* \"#utility.yul\":5758:6124   */\n      swap2\n      swap1\n      pop\n      jump\t// out\n        /* \"#utility.yul\":6130:6549   */\n    tag_65:\n        /* \"#utility.yul\":6296:6300   */\n      0x00\n        /* \"#utility.yul\":6334:6336   */\n      0x20\n        /* \"#utility.yul\":6323:6332   */\n      dup3\n        /* \"#utility.yul\":6319:6337   */\n      add\n        /* \"#utility.yul\":6311:6337   */\n      swap1\n      pop\n        /* \"#utility.yul\":6383:6392   */\n      dup2\n        /* \"#utility.yul\":6377:6381   */\n      dup2\n        /* \"#utility.yul\":6373:6393   */\n      sub\n        /* \"#utility.yul\":6369:6370   */\n      0x00\n        /* \"#utility.yul\":6358:6367   */\n      dup4\n        /* \"#utility.yul\":6354:6371   */\n      add\n        /* \"#utility.yul\":6347:6394   */\n      mstore\n        /* \"#utility.yul\":6411:6542   */\n      tag_195\n        /* \"#utility.yul\":6537:6541   */\n      dup2\n        /* \"#utility.yul\":6411:6542   */\n      tag_117\n      jump\t// in\n    tag_195:\n        /* \"#utility.yul\":6403:6542   */\n      swap1\n      pop\n        /* \"#utility.yul\":6130:6549   */\n      swap2\n      swap1\n      pop\n      jump\t// out\n        /* \"#utility.yul\":6555:6725   */\n    tag_118:\n        /* \"#utility.yul\":6695:6717   */\n      0x496e73756666696369656e742062616c616e6365000000000000000000000000\n        /* \"#utility.yul\":6691:6692   */\n      0x00\n        /* \"#utility.yul\":6683:6689   */\n      dup3\n        /* \"#utility.yul\":6679:6693   */\n      add\n        /* \"#utility.yul\":6672:6718   */\n      mstore\n        /* \"#utility.yul\":6555:6725   */\n      pop\n      jump\t// out\n        /* \"#utility.yul\":6731:7097   */\n    tag_119:\n        /* \"#utility.yul\":6873:6876   */\n      0x00\n        /* \"#utility.yul\":6894:6961   */\n      tag_198\n        /* \"#utility.yul\":6958:6960   */\n      0x14\n        /* \"#utility.yul\":6953:6956   */\n      dup4\n        /* \"#utility.yul\":6894:6961   */\n      tag_113\n      jump\t// in\n    tag_198:\n        /* \"#utility.yul\":6887:6961   */\n      swap2\n      pop\n        /* \"#utility.yul\":6970:7063   */\n      tag_199\n        /* \"#utility.yul\":7059:7062   */\n      dup3\n        /* \"#utility.yul\":6970:7063   */\n      tag_118\n      jump\t// in\n    tag_199:\n        /* \"#utility.yul\":7088:7090   */\n      0x20\n        /* \"#utility.yul\":7083:7086   */\n      dup3\n        /* \"#utility.yul\":7079:7091   */\n      add\n        /* \"#utility.yul\":7072:7091   */\n      swap1\n      pop\n        /* \"#utility.yul\":6731:7097   */\n      swap2\n      swap1\n      pop\n      jump\t// out\n        /* \"#utility.yul\":7103:7522   */\n    tag_69:\n        /* \"#utility.yul\":7269:7273   */\n      0x00\n        /* \"#utility.yul\":7307:7309   */\n      0x20\n        /* \"#utility.yul\":7296:7305   */\n      dup3\n        /* \"#utility.yul\":7292:7310   */\n      add\n        /* \"#utility.yul\":7284:7310   */\n      swap1\n      pop\n        /* \"#utility.yul\":7356:7365   */\n      dup2\n        /* \"#utility.yul\":7350:7354   */\n      dup2\n        /* \"#utility.yul\":7346:7366   */\n      sub\n        /* \"#utility.yul\":7342:7343   */\n      0x00\n        /* \"#utility.yul\":7331:7340   */\n      dup4\n        /* \"#utility.yul\":7327:7344   */\n      add\n        /* \"#utility.yul\":7320:7367   */\n      mstore\n        /* \"#utility.yul\":7384:7515   */\n      tag_201\n        /* \"#utility.yul\":7510:7514   */\n      dup2\n        /* \"#utility.yul\":7384:7515   */\n      tag_119\n      jump\t// in\n    tag_201:\n        /* \"#utility.yul\":7376:7515   */\n      swap1\n      pop\n        /* \"#utility.yul\":7103:7522   */\n      swap2\n      swap1\n      pop\n      jump\t// out\n        /* \"#utility.yul\":7528:7722   */\n    tag_71:\n        /* \"#utility.yul\":7568:7572   */\n      0x00\n        /* \"#utility.yul\":7588:7608   */\n      tag_203\n        /* \"#utility.yul\":7606:7607   */\n      dup3\n        /* \"#utility.yul\":7588:7608   */\n      tag_96\n      jump\t// in\n    tag_203:\n        /* \"#utility.yul\":7583:7608   */\n      swap2\n      pop\n        /* \"#utility.yul\":7622:7642   */\n      tag_204\n        /* \"#utility.yul\":7640:7641   */\n      dup4\n        /* \"#utility.yul\":7622:7642   */\n      tag_96\n      jump\t// in\n    tag_204:\n        /* \"#utility.yul\":7617:7642   */\n      swap3\n      pop\n        /* \"#utility.yul\":7666:7667   */\n      dup3\n        /* \"#utility.yul\":7663:7664   */\n      dup3\n        /* \"#utility.yul\":7659:7668   */\n      sub\n        /* \"#utility.yul\":7651:7668   */\n      swap1\n      pop\n        /* \"#utility.yul\":7690:7691   */\n      dup2\n        /* \"#utility.yul\":7684:7688   */\n      dup2\n        /* \"#utility.yul\":7681:7692   */\n      gt\n        /* \"#utility.yul\":7678:7715   */\n      iszero\n      tag_205\n      jumpi\n        /* \"#utility.yul\":7695:7713   */\n      tag_206\n      tag_97\n      jump\t// in\n    tag_206:\n        /* \"#utility.yul\":7678:7715   */\n    tag_205:\n        /* \"#utility.yul\":7528:7722   */\n      swap3\n      swap2\n      pop\n      pop\n      jump\t// out\n        /* \"#utility.yul\":7728:7893   */\n    tag_120:\n        /* \"#utility.yul\":7868:7885   */\n      0x496e76616c696420616464726573730000000000000000000000000000000000\n        /* \"#utility.yul\":7864:7865   */\n      0x00\n        /* \"#utility.yul\":7856:7862   */\n      dup3\n        /* \"#utility.yul\":7852:7866   */\n      add\n        /* \"#utility.yul\":7845:7886   */\n      mstore\n        /* \"#utility.yul\":7728:7893   */\n      pop\n      jump\t// out\n        /* \"#utility.yul\":7899:8265   */\n    tag_121:\n        /* \"#utility.yul\":8041:8044   */\n      0x00\n        /* \"#utility.yul\":8062:8129   */\n      tag_209\n        /* \"#utility.yul\":8126:8128   */\n      0x0f\n        /* \"#utility.yul\":8121:8124   */\n      dup4\n        /* \"#utility.yul\":8062:8129   */\n      tag_113\n      jump\t// in\n    tag_209:\n        /* \"#utility.yul\":8055:8129   */\n      swap2\n      pop\n        /* \"#utility.yul\":8138:8231   */\n      tag_210\n        /* \"#utility.yul\":8227:8230   */\n      dup3\n        /* \"#utility.yul\":8138:8231   */\n      tag_120\n      jump\t// in\n    tag_210:\n        /* \"#utility.yul\":8256:8258   */\n      0x20\n        /* \"#utility.yul\":8251:8254   */\n      dup3\n        /* \"#utility.yul\":8247:8259   */\n      add\n        /* \"#utility.yul\":8240:8259   */\n      swap1\n      pop\n        /* \"#utility.yul\":7899:8265   */\n      swap2\n      swap1\n      pop\n      jump\t// out\n        /* \"#utility.yul\":8271:8690   */\n    tag_81:\n        /* \"#utility.yul\":8437:8441   */\n      0x00\n        /* \"#utility.yul\":8475:8477   */\n      0x20\n        /* \"#utility.yul\":8464:8473   */\n      dup3\n        /* \"#utility.yul\":8460:8478   */\n      add\n        /* \"#utility.yul\":8452:8478   */\n      swap1\n      pop\n        /* \"#utility.yul\":8524:8533   */\n      dup2\n        /* \"#utility.yul\":8518:8522   */\n      dup2\n        /* \"#utility.yul\":8514:8534   */\n      sub\n        /* \"#utility.yul\":8510:8511   */\n      0x00\n        /* \"#utility.yul\":8499:8508   */\n      dup4\n        /* \"#utility.yul\":8495:8512   */\n      add\n        /* \"#utility.yul\":8488:8535   */\n      mstore\n        /* \"#utility.yul\":8552:8683   */\n      tag_212\n        /* \"#utility.yul\":8678:8682   */\n      dup2\n        /* \"#utility.yul\":8552:8683   */\n      tag_121\n      jump\t// in\n    tag_212:\n        /* \"#utility.yul\":8544:8683   */\n      swap1\n      pop\n        /* \"#utility.yul\":8271:8690   */\n      swap2\n      swap1\n      pop\n      jump\t// out\n        /* \"#utility.yul\":8696:8861   */\n    tag_122:\n        /* \"#utility.yul\":8836:8853   */\n      0x4d7573742073656e642045746865720000000000000000000000000000000000\n        /* \"#utility.yul\":8832:8833   */\n      0x00\n        /* \"#utility.yul\":8824:8830   */\n      dup3\n        /* \"#utility.yul\":8820:8834   */\n      add\n        /* \"#utility.yul\":8813:8854   */\n      mstore\n        /* \"#utility.yul\":8696:8861   */\n      pop\n      jump\t// out\n        /* \"#utility.yul\":8867:9233   */\n    tag_123:\n        /* \"#utility.yul\":9009:9012   */\n      0x00\n        /* \"#utility.yul\":9030:9097   */\n      tag_215\n        /* \"#utility.yul\":9094:9096   */\n      0x0f\n        /* \"#utility.yul\":9089:9092   */\n      dup4\n        /* \"#utility.yul\":9030:9097   */\n      tag_113\n      jump\t// in\n    tag_215:\n        /* \"#utility.yul\":9023:9097   */\n      swap2\n      pop\n        /* \"#utility.yul\":9106:9199   */\n      tag_216\n        /* \"#utility.yul\":9195:9198   */\n      dup3\n        /* \"#utility.yul\":9106:9199   */\n      tag_122\n      jump\t// in\n    tag_216:\n        /* \"#utility.yul\":9224:9226   */\n      0x20\n        /* \"#utility.yul\":9219:9222   */\n      dup3\n        /* \"#utility.yul\":9215:9227   */\n      add\n        /* \"#utility.yul\":9208:9227   */\n      swap1\n      pop\n        /* \"#utility.yul\":8867:9233   */\n      swap2\n      swap1\n      pop\n      jump\t// out\n        /* \"#utility.yul\":9239:9658   */\n    tag_93:\n        /* \"#utility.yul\":9405:9409   */\n      0x00\n        /* \"#utility.yul\":9443:9445   */\n      0x20\n        /* \"#utility.yul\":9432:9441   */\n      dup3\n        /* \"#utility.yul\":9428:9446   */\n      add\n        /* \"#utility.yul\":9420:9446   */\n      swap1\n      pop\n        /* \"#utility.yul\":9492:9501   */\n      dup2\n        /* \"#utility.yul\":9486:9490   */\n      dup2\n        /* \"#utility.yul\":9482:9502   */\n      sub\n        /* \"#utility.yul\":9478:9479   */\n      0x00\n        /* \"#utility.yul\":9467:9476   */\n      dup4\n        /* \"#utility.yul\":9463:9480   */\n      add\n        /* \"#utility.yul\":9456:9503   */\n      mstore\n        /* \"#utility.yul\":9520:9651   */\n      tag_218\n        /* \"#utility.yul\":9646:9650   */\n      dup2\n        /* \"#utility.yul\":9520:9651   */\n      tag_123\n      jump\t// in\n    tag_218:\n        /* \"#utility.yul\":9512:9651   */\n      swap1\n      pop\n        /* \"#utility.yul\":9239:9658   */\n      swap2\n      swap1\n      pop\n      jump\t// out\n\n    auxdata: 0xa264697066735822122093107b14bfd044b06221b55dd0bd0b149bdda9f0f884cc2b016940b18970b4bf64736f6c634300081e0033\n}\n",
				"bytecode": {
					"linkReferences": {},
					"object": "6080604052348015600e575f5ffd5b50335f5f6101000a81548173ffffffffffffffffffffffffffffffffffffffff021916908373ffffffffffffffffffffffffffffffffffffffff160217905550610deb8061005b5f395ff3fe60806040526004361061007e575f3560e01c80635c975abb1161004d5780635c975abb146101e05780638da5cb5b1461020a578063a9059cbb14610234578063d0e30db01461025c57610126565b806302329a291461012a57806312065fe01461015257806327e235e31461017c5780632e1a7d4d146101b857610126565b36610126573460015f3373ffffffffffffffffffffffffffffffffffffffff1673ffffffffffffffffffffffffffffffffffffffff1681526020019081526020015f205f8282546100cf9190610943565b925050819055503373ffffffffffffffffffffffffffffffffffffffff167fe1fffcc4923d04b559f4d29a8bfc6cda04eb5b0d3c460751c2402c5c5cc9109c3460405161011c9190610985565b60405180910390a2005b5f5ffd5b348015610135575f5ffd5b50610150600480360381019061014b91906109d7565b610266565b005b34801561015d575f5ffd5b50610166610347565b6040516101739190610985565b60405180910390f35b348015610187575f5ffd5b506101a2600480360381019061019d9190610a5c565b61038b565b6040516101af9190610985565b60405180910390f35b3480156101c3575f5ffd5b506101de60048036038101906101d99190610ab1565b6103a0565b005b3480156101eb575f5ffd5b506101f4610557565b6040516102019190610aeb565b60405180910390f35b348015610215575f5ffd5b5061021e610569565b60405161022b9190610b13565b60405180910390f35b34801561023f575f5ffd5b5061025a60048036038101906102559190610b2c565b61058d565b005b6102646107d9565b005b5f5f9054906101000a900473ffffffffffffffffffffffffffffffffffffffff1673ffffffffffffffffffffffffffffffffffffffff163373ffffffffffffffffffffffffffffffffffffffff16146102f4576040517f08c379a00000000000000000000000000000000000000000000000000000000081526004016102eb90610bc4565b60405180910390fd5b805f60146101000a81548160ff0219169083151502179055507f0e2fb031ee032dc02d8011dc50b816eb450cf856abd8261680dac74f72165bd28160405161033c9190610aeb565b60405180910390a150565b5f60015f3373ffffffffffffffffffffffffffffffffffffffff1673ffffffffffffffffffffffffffffffffffffffff1681526020019081526020015f2054905090565b6001602052805f5260405f205f915090505481565b5f60149054906101000a900460ff16156103ef576040517f08c379a00000000000000000000000000000000000000000000000000000000081526004016103e690610c2c565b60405180910390fd5b8060015f3373ffffffffffffffffffffffffffffffffffffffff1673ffffffffffffffffffffffffffffffffffffffff1681526020019081526020015f2054101561046f576040517f08c379a000000000000000000000000000000000000000000000000000000000815260040161046690610c94565b60405180910390fd5b8060015f3373ffffffffffffffffffffffffffffffffffffffff1673ffffffffffffffffffffffffffffffffffffffff1681526020019081526020015f205f8282546104bb9190610cb2565b925050819055503373ffffffffffffffffffffffffffffffffffffffff166108fc8290811502906040515f60405180830381858888f19350505050158015610505573d5f5f3e3d5ffd5b503373ffffffffffffffffffffffffffffffffffffffff167f884edad9ce6fa2440d8a54cc123490eb96d2768479d49ff9c7366125a94243648260405161054c9190610985565b60405180910390a250565b5f60149054906101000a900460ff1681565b5f5f9054906101000a900473ffffffffffffffffffffffffffffffffffffffff1681565b5f60149054906101000a900460ff16156105dc576040517f08c379a00000000000000000000000000000000000000000000000000000000081526004016105d390610c2c565b60405180910390fd5b5f73ffffffffffffffffffffffffffffffffffffffff168273ffffffffffffffffffffffffffffffffffffffff160361064a576040517f08c379a000000000000000000000000000000000000000000000000000000000815260040161064190610d2f565b60405180910390fd5b8060015f3373ffffffffffffffffffffffffffffffffffffffff1673ffffffffffffffffffffffffffffffffffffffff1681526020019081526020015f205410156106ca576040517f08c379a00000000000000000000000000000000000000000000000000000000081526004016106c190610c94565b60405180910390fd5b8060015f3373ffffffffffffffffffffffffffffffffffffffff1673ffffffffffffffffffffffffffffffffffffffff1681526020019081526020015f205f8282546107169190610cb2565b925050819055508060015f8473ffffffffffffffffffffffffffffffffffffffff1673ffffffffffffffffffffffffffffffffffffffff1681526020019081526020015f205f8282546107699190610943565b925050819055508173ffffffffffffffffffffffffffffffffffffffff163373ffffffffffffffffffffffffffffffffffffffff167fddf252ad1be2c89b69c2b068fc378daa952ba7f163c4a11628f55a4df523b3ef836040516107cd9190610985565b60405180910390a35050565b5f60149054906101000a900460ff1615610828576040517f08c379a000000000000000000000000000000000000000000000000000000000815260040161081f90610c2c565b60405180910390fd5b5f341161086a576040517f08c379a000000000000000000000000000000000000000000000000000000000815260040161086190610d97565b60405180910390fd5b3460015f3373ffffffffffffffffffffffffffffffffffffffff1673ffffffffffffffffffffffffffffffffffffffff1681526020019081526020015f205f8282546108b69190610943565b925050819055503373ffffffffffffffffffffffffffffffffffffffff167fe1fffcc4923d04b559f4d29a8bfc6cda04eb5b0d3c460751c2402c5c5cc9109c346040516109039190610985565b60405180910390a2565b5f819050919050565b7f4e487b71000000000000000000000000000000000000000000000000000000005f52601160045260245ffd5b5f61094d8261090d565b91506109588361090d565b92508282019050808211156109705761096f610916565b5b92915050565b61097f8161090d565b82525050565b5f6020820190506109985f830184610976565b92915050565b5f5ffd5b5f8115159050919050565b6109b6816109a2565b81146109c0575f5ffd5b50565b5f813590506109d1816109ad565b92915050565b5f602082840312156109ec576109eb61099e565b5b5f6109f9848285016109c3565b91505092915050565b5f73ffffffffffffffffffffffffffffffffffffffff82169050919050565b5f610a2b82610a02565b9050919050565b610a3b81610a21565b8114610a45575f5ffd5b50565b5f81359050610a5681610a32565b92915050565b5f60208284031215610a7157610a7061099e565b5b5f610a7e84828501610a48565b91505092915050565b610a908161090d565b8114610a9a575f5ffd5b50565b5f81359050610aab81610a87565b92915050565b5f60208284031215610ac657610ac561099e565b5b5f610ad384828501610a9d565b91505092915050565b610ae5816109a2565b82525050565b5f602082019050610afe5f830184610adc565b92915050565b610b0d81610a21565b82525050565b5f602082019050610b265f830184610b04565b92915050565b5f5f60408385031215610b4257610b4161099e565b5b5f610b4f85828601610a48565b9250506020610b6085828601610a9d565b9150509250929050565b5f82825260208201905092915050565b7f4e6f74206f776e657200000000000000000000000000000000000000000000005f82015250565b5f610bae600983610b6a565b9150610bb982610b7a565b602082019050919050565b5f6020820190508181035f830152610bdb81610ba2565b9050919050565b7f436f6e74726163742070617573656400000000000000000000000000000000005f82015250565b5f610c16600f83610b6a565b9150610c2182610be2565b602082019050919050565b5f6020820190508181035f830152610c4381610c0a565b9050919050565b7f496e73756666696369656e742062616c616e63650000000000000000000000005f82015250565b5f610c7e601483610b6a565b9150610c8982610c4a565b602082019050919050565b5f6020820190508181035f830152610cab81610c72565b9050919050565b5f610cbc8261090d565b9150610cc78361090d565b9250828203905081811115610cdf57610cde610916565b5b92915050565b7f496e76616c6964206164647265737300000000000000000000000000000000005f82015250565b5f610d19600f83610b6a565b9150610d2482610ce5565b602082019050919050565b5f6020820190508181035f830152610d4681610d0d565b9050919050565b7f4d7573742073656e6420457468657200000000000000000000000000000000005f82015250565b5f610d81600f83610b6a565b9150610d8c82610d4d565b602082019050919050565b5f6020820190508181035f830152610dae81610d75565b905091905056fea264697066735822122093107b14bfd044b06221b55dd0bd0b149bdda9f0f884cc2b016940b18970b4bf64736f6c634300081e0033",
					"opcodes": "PUSH1 0x80 PUSH1 0x40 MSTORE CALLVALUE DUP1 ISZERO PUSH1 0xE JUMPI PUSH0 PUSH0 REVERT JUMPDEST POP CALLER PUSH0 PUSH0 PUSH2 0x100 EXP DUP2 SLOAD DUP2 PUSH20 0xFFFFFFFFFFFFFFFFFFFFFFFFFFFFFFFFFFFFFFFF MUL NOT AND SWAP1 DUP4 PUSH20 0xFFFFFFFFFFFFFFFFFFFFFFFFFFFFFFFFFFFFFFFF AND MUL OR SWAP1 SSTORE POP PUSH2 0xDEB DUP1 PUSH2 0x5B PUSH0 CODECOPY PUSH0 RETURN INVALID PUSH1 0x80 PUSH1 0x40 MSTORE PUSH1 0x4 CALLDATASIZE LT PUSH2 0x7E JUMPI PUSH0 CALLDATALOAD PUSH1 0xE0 SHR DUP1 PUSH4 0x5C975ABB GT PUSH2 0x4D JUMPI DUP1 PUSH4 0x5C975ABB EQ PUSH2 0x1E0 JUMPI DUP1 PUSH4 0x8DA5CB5B EQ PUSH2 0x20A JUMPI DUP1 PUSH4 0xA9059CBB EQ PUSH2 0x234 JUMPI DUP1 PUSH4 0xD0E30DB0 EQ PUSH2 0x25C JUMPI PUSH2 0x126 JUMP JUMPDEST DUP1 PUSH4 0x2329A29 EQ PUSH2 0x12A JUMPI DUP1 PUSH4 0x12065FE0 EQ PUSH2 0x152 JUMPI DUP1 PUSH4 0x27E235E3 EQ PUSH2 0x17C JUMPI DUP1 PUSH4 0x2E1A7D4D EQ PUSH2 0x1B8 JUMPI PUSH2 0x126 JUMP JUMPDEST CALLDATASIZE PUSH2 0x126 JUMPI CALLVALUE PUSH1 0x1 PUSH0 CALLER PUSH20 0xFFFFFFFFFFFFFFFFFFFFFFFFFFFFFFFFFFFFFFFF AND PUSH20 0xFFFFFFFFFFFFFFFFFFFFFFFFFFFFFFFFFFFFFFFF AND DUP2 MSTORE PUSH1 0x20 ADD SWAP1 DUP2 MSTORE PUSH1 0x20 ADD PUSH0 KECCAK256 PUSH0 DUP3 DUP3 SLOAD PUSH2 0xCF SWAP2 SWAP1 PUSH2 0x943 JUMP JUMPDEST SWAP3 POP POP DUP2 SWAP1 SSTORE POP CALLER PUSH20 0xFFFFFFFFFFFFFFFFFFFFFFFFFFFFFFFFFFFFFFFF AND PUSH32 0xE1FFFCC4923D04B559F4D29A8BFC6CDA04EB5B0D3C460751C2402C5C5CC9109C CALLVALUE PUSH1 0x40 MLOAD PUSH2 0x11C SWAP2 SWAP1 PUSH2 0x985 JUMP JUMPDEST PUSH1 0x40 MLOAD DUP1 SWAP2 SUB SWAP1 LOG2 STOP JUMPDEST PUSH0 PUSH0 REVERT JUMPDEST CALLVALUE DUP1 ISZERO PUSH2 0x135 JUMPI PUSH0 PUSH0 REVERT JUMPDEST POP PUSH2 0x150 PUSH1 0x4 DUP1 CALLDATASIZE SUB DUP2 ADD SWAP1 PUSH2 0x14B SWAP2 SWAP1 PUSH2 0x9D7 JUMP JUMPDEST PUSH2 0x266 JUMP JUMPDEST STOP JUMPDEST CALLVALUE DUP1 ISZERO PUSH2 0x15D JUMPI PUSH0 PUSH0 REVERT JUMPDEST POP PUSH2 0x166 PUSH2 0x347 JUMP JUMPDEST PUSH1 0x40 MLOAD PUSH2 0x173 SWAP2 SWAP1 PUSH2 0x985 JUMP JUMPDEST PUSH1 0x40 MLOAD DUP1 SWAP2 SUB SWAP1 RETURN JUMPDEST CALLVALUE DUP1 ISZERO PUSH2 0x187 JUMPI PUSH0 PUSH0 REVERT JUMPDEST POP PUSH2 0x1A2 PUSH1 0x4 DUP1 CALLDATASIZE SUB DUP2 ADD SWAP1 PUSH2 0x19D SWAP2 SWAP1 PUSH2 0xA5C JUMP JUMPDEST PUSH2 0x38B JUMP JUMPDEST PUSH1 0x40 MLOAD PUSH2 0x1AF SWAP2 SWAP1 PUSH2 0x985 JUMP JUMPDEST PUSH1 0x40 MLOAD DUP1 SWAP2 SUB SWAP1 RETURN JUMPDEST CALLVALUE DUP1 ISZERO PUSH2 0x1C3 JUMPI PUSH0 PUSH0 REVERT JUMPDEST POP PUSH2 0x1DE PUSH1 0x4 DUP1 CALLDATASIZE SUB DUP2 ADD SWAP1 PUSH2 0x1D9 SWAP2 SWAP1 PUSH2 0xAB1 JUMP JUMPDEST PUSH2 0x3A0 JUMP JUMPDEST STOP JUMPDEST CALLVALUE DUP1 ISZERO PUSH2 0x1EB JUMPI PUSH0 PUSH0 REVERT JUMPDEST POP PUSH2 0x1F4 PUSH2 0x557 JUMP JUMPDEST PUSH1 0x40 MLOAD PUSH2 0x201 SWAP2 SWAP1 PUSH2 0xAEB JUMP JUMPDEST PUSH1 0x40 MLOAD DUP1 SWAP2 SUB SWAP1 RETURN JUMPDEST CALLVALUE DUP1 ISZERO PUSH2 0x215 JUMPI PUSH0 PUSH0 REVERT JUMPDEST POP PUSH2 0x21E PUSH2 0x569 JUMP JUMPDEST PUSH1 0x40 MLOAD PUSH2 0x22B SWAP2 SWAP1 PUSH2 0xB13 JUMP JUMPDEST PUSH1 0x40 MLOAD DUP1 SWAP2 SUB SWAP1 RETURN JUMPDEST CALLVALUE DUP1 ISZERO PUSH2 0x23F JUMPI PUSH0 PUSH0 REVERT JUMPDEST POP PUSH2 0x25A PUSH1 0x4 DUP1 CALLDATASIZE SUB DUP2 ADD SWAP1 PUSH2 0x255 SWAP2 SWAP1 PUSH2 0xB2C JUMP JUMPDEST PUSH2 0x58D JUMP JUMPDEST STOP JUMPDEST PUSH2 0x264 PUSH2 0x7D9 JUMP JUMPDEST STOP JUMPDEST PUSH0 PUSH0 SWAP1 SLOAD SWAP1 PUSH2 0x100 EXP SWAP1 DIV PUSH20 0xFFFFFFFFFFFFFFFFFFFFFFFFFFFFFFFFFFFFFFFF AND PUSH20 0xFFFFFFFFFFFFFFFFFFFFFFFFFFFFFFFFFFFFFFFF AND CALLER PUSH20 0xFFFFFFFFFFFFFFFFFFFFFFFFFFFFFFFFFFFFFFFF AND EQ PUSH2 0x2F4 JUMPI PUSH1 0x40 MLOAD PUSH32 0x8C379A000000000000000000000000000000000000000000000000000000000 DUP2 MSTORE PUSH1 0x4 ADD PUSH2 0x2EB SWAP1 PUSH2 0xBC4 JUMP JUMPDEST PUSH1 0x40 MLOAD DUP1 SWAP2 SUB SWAP1 REVERT JUMPDEST DUP1 PUSH0 PUSH1 0x14 PUSH2 0x100 EXP DUP2 SLOAD DUP2 PUSH1 0xFF MUL NOT AND SWAP1 DUP4 ISZERO ISZERO MUL OR SWAP1 SSTORE POP PUSH32 0xE2FB031EE032DC02D8011DC50B816EB450CF856ABD8261680DAC74F72165BD2 DUP2 PUSH1 0x40 MLOAD PUSH2 0x33C SWAP2 SWAP1 PUSH2 0xAEB JUMP JUMPDEST PUSH1 0x40 MLOAD DUP1 SWAP2 SUB SWAP1 LOG1 POP JUMP JUMPDEST PUSH0 PUSH1 0x1 PUSH0 CALLER PUSH20 0xFFFFFFFFFFFFFFFFFFFFFFFFFFFFFFFFFFFFFFFF AND PUSH20 0xFFFFFFFFFFFFFFFFFFFFFFFFFFFFFFFFFFFFFFFF AND DUP2 MSTORE PUSH1 0x20 ADD SWAP1 DUP2 MSTORE PUSH1 0x20 ADD PUSH0 KECCAK256 SLOAD SWAP1 POP SWAP1 JUMP JUMPDEST PUSH1 0x1 PUSH1 0x20 MSTORE DUP1 PUSH0 MSTORE PUSH1 0x40 PUSH0 KECCAK256 PUSH0 SWAP2 POP SWAP1 POP SLOAD DUP2 JUMP JUMPDEST PUSH0 PUSH1 0x14 SWAP1 SLOAD SWAP1 PUSH2 0x100 EXP SWAP1 DIV PUSH1 0xFF AND ISZERO PUSH2 0x3EF JUMPI PUSH1 0x40 MLOAD PUSH32 0x8C379A000000000000000000000000000000000000000000000000000000000 DUP2 MSTORE PUSH1 0x4 ADD PUSH2 0x3E6 SWAP1 PUSH2 0xC2C JUMP JUMPDEST PUSH1 0x40 MLOAD DUP1 SWAP2 SUB SWAP1 REVERT JUMPDEST DUP1 PUSH1 0x1 PUSH0 CALLER PUSH20 0xFFFFFFFFFFFFFFFFFFFFFFFFFFFFFFFFFFFFFFFF AND PUSH20 0xFFFFFFFFFFFFFFFFFFFFFFFFFFFFFFFFFFFFFFFF AND DUP2 MSTORE PUSH1 0x20 ADD SWAP1 DUP2 MSTORE PUSH1 0x20 ADD PUSH0 KECCAK256 SLOAD LT ISZERO PUSH2 0x46F JUMPI PUSH1 0x40 MLOAD PUSH32 0x8C379A000000000000000000000000000000000000000000000000000000000 DUP2 MSTORE PUSH1 0x4 ADD PUSH2 0x466 SWAP1 PUSH2 0xC94 JUMP JUMPDEST PUSH1 0x40 MLOAD DUP1 SWAP2 SUB SWAP1 REVERT JUMPDEST DUP1 PUSH1 0x1 PUSH0 CALLER PUSH20 0xFFFFFFFFFFFFFFFFFFFFFFFFFFFFFFFFFFFFFFFF AND PUSH20 0xFFFFFFFFFFFFFFFFFFFFFFFFFFFFFFFFFFFFFFFF AND DUP2 MSTORE PUSH1 0x20 ADD SWAP1 DUP2 MSTORE PUSH1 0x20 ADD PUSH0 KECCAK256 PUSH0 DUP3 DUP3 SLOAD PUSH2 0x4BB SWAP2 SWAP1 PUSH2 0xCB2 JUMP JUMPDEST SWAP3 POP POP DUP2 SWAP1 SSTORE POP CALLER PUSH20 0xFFFFFFFFFFFFFFFFFFFFFFFFFFFFFFFFFFFFFFFF AND PUSH2 0x8FC DUP3 SWAP1 DUP2 ISZERO MUL SWAP1 PUSH1 0x40 MLOAD PUSH0 PUSH1 0x40 MLOAD DUP1 DUP4 SUB DUP2 DUP6 DUP9 DUP9 CALL SWAP4 POP POP POP POP ISZERO DUP1 ISZERO PUSH2 0x505 JUMPI RETURNDATASIZE PUSH0 PUSH0 RETURNDATACOPY RETURNDATASIZE PUSH0 REVERT JUMPDEST POP CALLER PUSH20 0xFFFFFFFFFFFFFFFFFFFFFFFFFFFFFFFFFFFFFFFF AND PUSH32 0x884EDAD9CE6FA2440D8A54CC123490EB96D2768479D49FF9C7366125A9424364 DUP3 PUSH1 0x40 MLOAD PUSH2 0x54C SWAP2 SWAP1 PUSH2 0x985 JUMP JUMPDEST PUSH1 0x40 MLOAD DUP1 SWAP2 SUB SWAP1 LOG2 POP JUMP JUMPDEST PUSH0 PUSH1 0x14 SWAP1 SLOAD SWAP1 PUSH2 0x100 EXP SWAP1 DIV PUSH1 0xFF AND DUP2 JUMP JUMPDEST PUSH0 PUSH0 SWAP1 SLOAD SWAP1 PUSH2 0x100 EXP SWAP1 DIV PUSH20 0xFFFFFFFFFFFFFFFFFFFFFFFFFFFFFFFFFFFFFFFF AND DUP2 JUMP JUMPDEST PUSH0 PUSH1 0x14 SWAP1 SLOAD SWAP1 PUSH2 0x100 EXP SWAP1 DIV PUSH1 0xFF AND ISZERO PUSH2 0x5DC JUMPI PUSH1 0x40 MLOAD PUSH32 0x8C379A000000000000000000000000000000000000000000000000000000000 DUP2 MSTORE PUSH1 0x4 ADD PUSH2 0x5D3 SWAP1 PUSH2 0xC2C JUMP JUMPDEST PUSH1 0x40 MLOAD DUP1 SWAP2 SUB SWAP1 REVERT JUMPDEST PUSH0 PUSH20 0xFFFFFFFFFFFFFFFFFFFFFFFFFFFFFFFFFFFFFFFF AND DUP3 PUSH20 0xFFFFFFFFFFFFFFFFFFFFFFFFFFFFFFFFFFFFFFFF AND SUB PUSH2 0x64A JUMPI PUSH1 0x40 MLOAD PUSH32 0x8C379A000000000000000000000000000000000000000000000000000000000 DUP2 MSTORE PUSH1 0x4 ADD PUSH2 0x641 SWAP1 PUSH2 0xD2F JUMP JUMPDEST PUSH1 0x40 MLOAD DUP1 SWAP2 SUB SWAP1 REVERT JUMPDEST DUP1 PUSH1 0x1 PUSH0 CALLER PUSH20 0xFFFFFFFFFFFFFFFFFFFFFFFFFFFFFFFFFFFFFFFF AND PUSH20 0xFFFFFFFFFFFFFFFFFFFFFFFFFFFFFFFFFFFFFFFF AND DUP2 MSTORE PUSH1 0x20 ADD SWAP1 DUP2 MSTORE PUSH1 0x20 ADD PUSH0 KECCAK256 SLOAD LT ISZERO PUSH2 0x6CA JUMPI PUSH1 0x40 MLOAD PUSH32 0x8C379A000000000000000000000000000000000000000000000000000000000 DUP2 MSTORE PUSH1 0x4 ADD PUSH2 0x6C1 SWAP1 PUSH2 0xC94 JUMP JUMPDEST PUSH1 0x40 MLOAD DUP1 SWAP2 SUB SWAP1 REVERT JUMPDEST DUP1 PUSH1 0x1 PUSH0 CALLER PUSH20 0xFFFFFFFFFFFFFFFFFFFFFFFFFFFFFFFFFFFFFFFF AND PUSH20 0xFFFFFFFFFFFFFFFFFFFFFFFFFFFFFFFFFFFFFFFF AND DUP2 MSTORE PUSH1 0x20 ADD SWAP1 DUP2 MSTORE PUSH1 0x20 ADD PUSH0 KECCAK256 PUSH0 DUP3 DUP3 SLOAD PUSH2 0x716 SWAP2 SWAP1 PUSH2 0xCB2 JUMP JUMPDEST SWAP3 POP POP DUP2 SWAP1 SSTORE POP DUP1 PUSH1 0x1 PUSH0 DUP5 PUSH20 0xFFFFFFFFFFFFFFFFFFFFFFFFFFFFFFFFFFFFFFFF AND PUSH20 0xFFFFFFFFFFFFFFFFFFFFFFFFFFFFFFFFFFFFFFFF AND DUP2 MSTORE PUSH1 0x20 ADD SWAP1 DUP2 MSTORE PUSH1 0x20 ADD PUSH0 KECCAK256 PUSH0 DUP3 DUP3 SLOAD PUSH2 0x769 SWAP2 SWAP1 PUSH2 0x943 JUMP JUMPDEST SWAP3 POP POP DUP2 SWAP1 SSTORE POP DUP2 PUSH20 0xFFFFFFFFFFFFFFFFFFFFFFFFFFFFFFFFFFFFFFFF AND CALLER PUSH20 0xFFFFFFFFFFFFFFFFFFFFFFFFFFFFFFFFFFFFFFFF AND PUSH32 0xDDF252AD1BE2C89B69C2B068FC378DAA952BA7F163C4A11628F55A4DF523B3EF DUP4 PUSH1 0x40 MLOAD PUSH2 0x7CD SWAP2 SWAP1 PUSH2 0x985 JUMP JUMPDEST PUSH1 0x40 MLOAD DUP1 SWAP2 SUB SWAP1 LOG3 POP POP JUMP JUMPDEST PUSH0 PUSH1 0x14 SWAP1 SLOAD SWAP1 PUSH2 0x100 EXP SWAP1 DIV PUSH1 0xFF AND ISZERO PUSH2 0x828 JUMPI PUSH1 0x40 MLOAD PUSH32 0x8C379A000000000000000000000000000000000000000000000000000000000 DUP2 MSTORE PUSH1 0x4 ADD PUSH2 0x81F SWAP1 PUSH2 0xC2C JUMP JUMPDEST PUSH1 0x40 MLOAD DUP1 SWAP2 SUB SWAP1 REVERT JUMPDEST PUSH0 CALLVALUE GT PUSH2 0x86A JUMPI PUSH1 0x40 MLOAD PUSH32 0x8C379A000000000000000000000000000000000000000000000000000000000 DUP2 MSTORE PUSH1 0x4 ADD PUSH2 0x861 SWAP1 PUSH2 0xD97 JUMP JUMPDEST PUSH1 0x40 MLOAD DUP1 SWAP2 SUB SWAP1 REVERT JUMPDEST CALLVALUE PUSH1 0x1 PUSH0 CALLER PUSH20 0xFFFFFFFFFFFFFFFFFFFFFFFFFFFFFFFFFFFFFFFF AND PUSH20 0xFFFFFFFFFFFFFFFFFFFFFFFFFFFFFFFFFFFFFFFF AND DUP2 MSTORE PUSH1 0x20 ADD SWAP1 DUP2 MSTORE PUSH1 0x20 ADD PUSH0 KECCAK256 PUSH0 DUP3 DUP3 SLOAD PUSH2 0x8B6 SWAP2 SWAP1 PUSH2 0x943 JUMP JUMPDEST SWAP3 POP POP DUP2 SWAP1 SSTORE POP CALLER PUSH20 0xFFFFFFFFFFFFFFFFFFFFFFFFFFFFFFFFFFFFFFFF AND PUSH32 0xE1FFFCC4923D04B559F4D29A8BFC6CDA04EB5B0D3C460751C2402C5C5CC9109C CALLVALUE PUSH1 0x40 MLOAD PUSH2 0x903 SWAP2 SWAP1 PUSH2 0x985 JUMP JUMPDEST PUSH1 0x40 MLOAD DUP1 SWAP2 SUB SWAP1 LOG2 JUMP JUMPDEST PUSH0 DUP2 SWAP1 POP SWAP2 SWAP1 POP JUMP JUMPDEST PUSH32 0x4E487B7100000000000000000000000000000000000000000000000000000000 PUSH0 MSTORE PUSH1 0x11 PUSH1 0x4 MSTORE PUSH1 0x24 PUSH0 REVERT JUMPDEST PUSH0 PUSH2 0x94D DUP3 PUSH2 0x90D JUMP JUMPDEST SWAP2 POP PUSH2 0x958 DUP4 PUSH2 0x90D JUMP JUMPDEST SWAP3 POP DUP3 DUP3 ADD SWAP1 POP DUP1 DUP3 GT ISZERO PUSH2 0x970 JUMPI PUSH2 0x96F PUSH2 0x916 JUMP JUMPDEST JUMPDEST SWAP3 SWAP2 POP POP JUMP JUMPDEST PUSH2 0x97F DUP2 PUSH2 0x90D JUMP JUMPDEST DUP3 MSTORE POP POP JUMP JUMPDEST PUSH0 PUSH1 0x20 DUP3 ADD SWAP1 POP PUSH2 0x998 PUSH0 DUP4 ADD DUP5 PUSH2 0x976 JUMP JUMPDEST SWAP3 SWAP2 POP POP JUMP JUMPDEST PUSH0 PUSH0 REVERT JUMPDEST PUSH0 DUP2 ISZERO ISZERO SWAP1 POP SWAP2 SWAP1 POP JUMP JUMPDEST PUSH2 0x9B6 DUP2 PUSH2 0x9A2 JUMP JUMPDEST DUP2 EQ PUSH2 0x9C0 JUMPI PUSH0 PUSH0 REVERT JUMPDEST POP JUMP JUMPDEST PUSH0 DUP2 CALLDATALOAD SWAP1 POP PUSH2 0x9D1 DUP2 PUSH2 0x9AD JUMP JUMPDEST SWAP3 SWAP2 POP POP JUMP JUMPDEST PUSH0 PUSH1 0x20 DUP3 DUP5 SUB SLT ISZERO PUSH2 0x9EC JUMPI PUSH2 0x9EB PUSH2 0x99E JUMP JUMPDEST JUMPDEST PUSH0 PUSH2 0x9F9 DUP5 DUP3 DUP6 ADD PUSH2 0x9C3 JUMP JUMPDEST SWAP2 POP POP SWAP3 SWAP2 POP POP JUMP JUMPDEST PUSH0 PUSH20 0xFFFFFFFFFFFFFFFFFFFFFFFFFFFFFFFFFFFFFFFF DUP3 AND SWAP1 POP SWAP2 SWAP1 POP JUMP JUMPDEST PUSH0 PUSH2 0xA2B DUP3 PUSH2 0xA02 JUMP JUMPDEST SWAP1 POP SWAP2 SWAP1 POP JUMP JUMPDEST PUSH2 0xA3B DUP2 PUSH2 0xA21 JUMP JUMPDEST DUP2 EQ PUSH2 0xA45 JUMPI PUSH0 PUSH0 REVERT JUMPDEST POP JUMP JUMPDEST PUSH0 DUP2 CALLDATALOAD SWAP1 POP PUSH2 0xA56 DUP2 PUSH2 0xA32 JUMP JUMPDEST SWAP3 SWAP2 POP POP JUMP JUMPDEST PUSH0 PUSH1 0x20 DUP3 DUP5 SUB SLT ISZERO PUSH2 0xA71 JUMPI PUSH2 0xA70 PUSH2 0x99E JUMP JUMPDEST JUMPDEST PUSH0 PUSH2 0xA7E DUP5 DUP3 DUP6 ADD PUSH2 0xA48 JUMP JUMPDEST SWAP2 POP POP SWAP3 SWAP2 POP POP JUMP JUMPDEST PUSH2 0xA90 DUP2 PUSH2 0x90D JUMP JUMPDEST DUP2 EQ PUSH2 0xA9A JUMPI PUSH0 PUSH0 REVERT JUMPDEST POP JUMP JUMPDEST PUSH0 DUP2 CALLDATALOAD SWAP1 POP PUSH2 0xAAB DUP2 PUSH2 0xA87 JUMP JUMPDEST SWAP3 SWAP2 POP POP JUMP JUMPDEST PUSH0 PUSH1 0x20 DUP3 DUP5 SUB SLT ISZERO PUSH2 0xAC6 JUMPI PUSH2 0xAC5 PUSH2 0x99E JUMP JUMPDEST JUMPDEST PUSH0 PUSH2 0xAD3 DUP5 DUP3 DUP6 ADD PUSH2 0xA9D JUMP JUMPDEST SWAP2 POP POP SWAP3 SWAP2 POP POP JUMP JUMPDEST PUSH2 0xAE5 DUP2 PUSH2 0x9A2 JUMP JUMPDEST DUP3 MSTORE POP POP JUMP JUMPDEST PUSH0 PUSH1 0x20 DUP3 ADD SWAP1 POP PUSH2 0xAFE PUSH0 DUP4 ADD DUP5 PUSH2 0xADC JUMP JUMPDEST SWAP3 SWAP2 POP POP JUMP JUMPDEST PUSH2 0xB0D DUP2 PUSH2 0xA21 JUMP JUMPDEST DUP3 MSTORE POP POP JUMP JUMPDEST PUSH0 PUSH1 0x20 DUP3 ADD SWAP1 POP PUSH2 0xB26 PUSH0 DUP4 ADD DUP5 PUSH2 0xB04 JUMP JUMPDEST SWAP3 SWAP2 POP POP JUMP JUMPDEST PUSH0 PUSH0 PUSH1 0x40 DUP4 DUP6 SUB SLT ISZERO PUSH2 0xB42 JUMPI PUSH2 0xB41 PUSH2 0x99E JUMP JUMPDEST JUMPDEST PUSH0 PUSH2 0xB4F DUP6 DUP3 DUP7 ADD PUSH2 0xA48 JUMP JUMPDEST SWAP3 POP POP PUSH1 0x20 PUSH2 0xB60 DUP6 DUP3 DUP7 ADD PUSH2 0xA9D JUMP JUMPDEST SWAP2 POP POP SWAP3 POP SWAP3 SWAP1 POP JUMP JUMPDEST PUSH0 DUP3 DUP3 MSTORE PUSH1 0x20 DUP3 ADD SWAP1 POP SWAP3 SWAP2 POP POP JUMP JUMPDEST PUSH32 0x4E6F74206F776E65720000000000000000000000000000000000000000000000 PUSH0 DUP3 ADD MSTORE POP JUMP JUMPDEST PUSH0 PUSH2 0xBAE PUSH1 0x9 DUP4 PUSH2 0xB6A JUMP JUMPDEST SWAP2 POP PUSH2 0xBB9 DUP3 PUSH2 0xB7A JUMP JUMPDEST PUSH1 0x20 DUP3 ADD SWAP1 POP SWAP2 SWAP1 POP JUMP JUMPDEST PUSH0 PUSH1 0x20 DUP3 ADD SWAP1 POP DUP2 DUP2 SUB PUSH0 DUP4 ADD MSTORE PUSH2 0xBDB DUP2 PUSH2 0xBA2 JUMP JUMPDEST SWAP1 POP SWAP2 SWAP1 POP JUMP JUMPDEST PUSH32 0x436F6E7472616374207061757365640000000000000000000000000000000000 PUSH0 DUP3 ADD MSTORE POP JUMP JUMPDEST PUSH0 PUSH2 0xC16 PUSH1 0xF DUP4 PUSH2 0xB6A JUMP JUMPDEST SWAP2 POP PUSH2 0xC21 DUP3 PUSH2 0xBE2 JUMP JUMPDEST PUSH1 0x20 DUP3 ADD SWAP1 POP SWAP2 SWAP1 POP JUMP JUMPDEST PUSH0 PUSH1 0x20 DUP3 ADD SWAP1 POP DUP2 DUP2 SUB PUSH0 DUP4 ADD MSTORE PUSH2 0xC43 DUP2 PUSH2 0xC0A JUMP JUMPDEST SWAP1 POP SWAP2 SWAP1 POP JUMP JUMPDEST PUSH32 0x496E73756666696369656E742062616C616E6365000000000000000000000000 PUSH0 DUP3 ADD MSTORE POP JUMP JUMPDEST PUSH0 PUSH2 0xC7E PUSH1 0x14 DUP4 PUSH2 0xB6A JUMP JUMPDEST SWAP2 POP PUSH2 0xC89 DUP3 PUSH2 0xC4A JUMP JUMPDEST PUSH1 0x20 DUP3 ADD SWAP1 POP SWAP2 SWAP1 POP JUMP JUMPDEST PUSH0 PUSH1 0x20 DUP3 ADD SWAP1 POP DUP2 DUP2 SUB PUSH0 DUP4 ADD MSTORE PUSH2 0xCAB DUP2 PUSH2 0xC72 JUMP JUMPDEST SWAP1 POP SWAP2 SWAP1 POP JUMP JUMPDEST PUSH0 PUSH2 0xCBC DUP3 PUSH2 0x90D JUMP JUMPDEST SWAP2 POP PUSH2 0xCC7 DUP4 PUSH2 0x90D JUMP JUMPDEST SWAP3 POP DUP3 DUP3 SUB SWAP1 POP DUP2 DUP2 GT ISZERO PUSH2 0xCDF JUMPI PUSH2 0xCDE PUSH2 0x916 JUMP JUMPDEST JUMPDEST SWAP3 SWAP2 POP POP JUMP JUMPDEST PUSH32 0x496E76616C696420616464726573730000000000000000000000000000000000 PUSH0 DUP3 ADD MSTORE POP JUMP JUMPDEST PUSH0 PUSH2 0xD19 PUSH1 0xF DUP4 PUSH2 0xB6A JUMP JUMPDEST SWAP2 POP PUSH2 0xD24 DUP3 PUSH2 0xCE5 JUMP JUMPDEST PUSH1 0x20 DUP3 ADD SWAP1 POP SWAP2 SWAP1 POP JUMP JUMPDEST PUSH0 PUSH1 0x20 DUP3 ADD SWAP1 POP DUP2 DUP2 SUB PUSH0 DUP4 ADD MSTORE PUSH2 0xD46 DUP2 PUSH2 0xD0D JUMP JUMPDEST SWAP1 POP SWAP2 SWAP1 POP JUMP JUMPDEST PUSH32 0x4D7573742073656E642045746865720000000000000000000000000000000000 PUSH0 DUP3 ADD MSTORE POP JUMP JUMPDEST PUSH0 PUSH2 0xD81 PUSH1 0xF DUP4 PUSH2 0xB6A JUMP JUMPDEST SWAP2 POP PUSH2 0xD8C DUP3 PUSH2 0xD4D JUMP JUMPDEST PUSH1 0x20 DUP3 ADD SWAP1 POP SWAP2 SWAP1 POP JUMP JUMPDEST PUSH0 PUSH1 0x20 DUP3 ADD SWAP1 POP DUP2 DUP2 SUB PUSH0 DUP4 ADD MSTORE PUSH2 0xDAE DUP2 PUSH2 0xD75 JUMP JUMPDEST SWAP1 POP SWAP2 SWAP1 POP JUMP INVALID LOG2 PUSH5 0x6970667358 0x22 SLT KECCAK256 SWAP4 LT PUSH28 0x14BFD044B06221B55DD0BD0B149BDDA9F0F884CC2B016940B18970B4 0xBF PUSH5 0x736F6C6343 STOP ADDMOD 0x1E STOP CALLER "
				},
				"gasEstimates": {
					"creation": {
						"codeDepositCost": "712600",
						"executionCost": "25009",
						"totalCost": "737609"
					},
					"external": {
						"balances(address)": "2847",
						"deposit()": "infinite",
						"getBalance()": "2542",
						"owner()": "2529",
						"pause(bool)": "infinite",
						"paused()": "2516",
						"transfer(address,uint256)": "infinite",
						"withdraw(uint256)": "infinite"
					}
				},
				"methodIdentifiers": {
					"balances(address)": "27e235e3",
					"deposit()": "d0e30db0",
					"getBalance()": "12065fe0",
					"owner()": "8da5cb5b",
					"pause(bool)": "02329a29",
					"paused()": "5c975abb",
					"transfer(address,uint256)": "a9059cbb",
					"withdraw(uint256)": "2e1a7d4d"
				}
			},
			"storageLayout": {
				"storage": [
					{
						"astId": 3,
						"contract": "contracts/smartbank.sol:SmartBank",
						"label": "owner",
						"offset": 0,
						"slot": "0",
						"type": "t_address"
					},
					{
						"astId": 5,
						"contract": "contracts/smartbank.sol:SmartBank",
						"label": "paused",
						"offset": 20,
						"slot": "0",
						"type": "t_bool"
					},
					{
						"astId": 9,
						"contract": "contracts/smartbank.sol:SmartBank",
						"label": "balances",
						"offset": 0,
						"slot": "1",
						"type": "t_mapping(t_address,t_uint256)"
					}
				],
				"types": {
					"t_address": {
						"encoding": "inplace",
						"label": "address",
						"numberOfBytes": "20"
					},
					"t_bool": {
						"encoding": "inplace",
						"label": "bool",
						"numberOfBytes": "1"
					},
					"t_mapping(t_address,t_uint256)": {
						"encoding": "mapping",
						"key": "t_address",
						"label": "mapping(address => uint256)",
						"numberOfBytes": "32",
						"value": "t_uint256"
					},
					"t_uint256": {
						"encoding": "inplace",
						"label": "uint256",
						"numberOfBytes": "32"
					}
				}
			},
			"userdoc": {
				"kind": "user",
				"methods": {},
				"version": 1
			}
		}
	}
}